{
  "contractName": "Calculator",
  "abi": [
    {
      "inputs": [],
      "stateMutability": "nonpayable",
      "type": "constructor"
    },
    {
      "anonymous": false,
      "inputs": [
        {
          "indexed": true,
          "internalType": "address",
          "name": "owner",
          "type": "address"
        },
        {
          "indexed": true,
          "internalType": "address",
          "name": "approved",
          "type": "address"
        },
        {
          "indexed": true,
          "internalType": "uint256",
          "name": "tokenId",
          "type": "uint256"
        }
      ],
      "name": "Approval",
      "type": "event"
    },
    {
      "anonymous": false,
      "inputs": [
        {
          "indexed": true,
          "internalType": "address",
          "name": "owner",
          "type": "address"
        },
        {
          "indexed": true,
          "internalType": "address",
          "name": "operator",
          "type": "address"
        },
        {
          "indexed": false,
          "internalType": "bool",
          "name": "approved",
          "type": "bool"
        }
      ],
      "name": "ApprovalForAll",
      "type": "event"
    },
    {
      "anonymous": false,
      "inputs": [
        {
          "indexed": true,
          "internalType": "address",
          "name": "previousOwner",
          "type": "address"
        },
        {
          "indexed": true,
          "internalType": "address",
          "name": "newOwner",
          "type": "address"
        }
      ],
      "name": "OwnershipTransferred",
      "type": "event"
    },
    {
      "anonymous": false,
      "inputs": [
        {
          "indexed": false,
          "internalType": "address",
          "name": "purchaser",
          "type": "address"
        }
      ],
      "name": "TokenMint",
      "type": "event"
    },
    {
      "anonymous": false,
      "inputs": [
        {
          "indexed": true,
          "internalType": "address",
          "name": "from",
          "type": "address"
        },
        {
          "indexed": true,
          "internalType": "address",
          "name": "to",
          "type": "address"
        },
        {
          "indexed": true,
          "internalType": "uint256",
          "name": "tokenId",
          "type": "uint256"
        }
      ],
      "name": "Transfer",
      "type": "event"
    },
    {
      "inputs": [
        {
          "internalType": "address",
          "name": "to",
          "type": "address"
        },
        {
          "internalType": "uint256",
          "name": "tokenId",
          "type": "uint256"
        }
      ],
      "name": "approve",
      "outputs": [],
      "stateMutability": "nonpayable",
      "type": "function"
    },
    {
      "inputs": [
        {
          "internalType": "address",
          "name": "owner",
          "type": "address"
        }
      ],
      "name": "balanceOf",
      "outputs": [
        {
          "internalType": "uint256",
          "name": "",
          "type": "uint256"
        }
      ],
      "stateMutability": "view",
      "type": "function",
      "constant": true
    },
    {
      "inputs": [
        {
          "internalType": "uint256",
          "name": "",
          "type": "uint256"
        }
      ],
      "name": "colorSchemes",
      "outputs": [
        {
          "internalType": "string",
          "name": "buttonBackground",
          "type": "string"
        },
        {
          "internalType": "string",
          "name": "borderStrip",
          "type": "string"
        },
        {
          "internalType": "string",
          "name": "buttonText",
          "type": "string"
        },
        {
          "internalType": "string",
          "name": "screenText",
          "type": "string"
        },
        {
          "internalType": "string",
          "name": "screen",
          "type": "string"
        },
        {
          "internalType": "string",
          "name": "ownerText",
          "type": "string"
        }
      ],
      "stateMutability": "view",
      "type": "function",
      "constant": true
    },
    {
      "inputs": [
        {
          "internalType": "uint256",
          "name": "tokenId",
          "type": "uint256"
        }
      ],
      "name": "getApproved",
      "outputs": [
        {
          "internalType": "address",
          "name": "",
          "type": "address"
        }
      ],
      "stateMutability": "view",
      "type": "function",
      "constant": true
    },
    {
      "inputs": [
        {
          "internalType": "address",
          "name": "owner",
          "type": "address"
        },
        {
          "internalType": "address",
          "name": "operator",
          "type": "address"
        }
      ],
      "name": "isApprovedForAll",
      "outputs": [
        {
          "internalType": "bool",
          "name": "",
          "type": "bool"
        }
      ],
      "stateMutability": "view",
      "type": "function",
      "constant": true
    },
    {
      "inputs": [],
      "name": "maxAmount",
      "outputs": [
        {
          "internalType": "uint256",
          "name": "",
          "type": "uint256"
        }
      ],
      "stateMutability": "view",
      "type": "function",
      "constant": true
    },
    {
      "inputs": [],
      "name": "name",
      "outputs": [
        {
          "internalType": "string",
          "name": "",
          "type": "string"
        }
      ],
      "stateMutability": "view",
      "type": "function",
      "constant": true
    },
    {
      "inputs": [],
      "name": "officialFrontEnd",
      "outputs": [
        {
          "internalType": "string",
          "name": "",
          "type": "string"
        }
      ],
      "stateMutability": "view",
      "type": "function",
      "constant": true
    },
    {
      "inputs": [],
      "name": "owner",
      "outputs": [
        {
          "internalType": "address",
          "name": "",
          "type": "address"
        }
      ],
      "stateMutability": "view",
      "type": "function",
      "constant": true
    },
    {
      "inputs": [
        {
          "internalType": "uint256",
          "name": "tokenId",
          "type": "uint256"
        }
      ],
      "name": "ownerOf",
      "outputs": [
        {
          "internalType": "address",
          "name": "",
          "type": "address"
        }
      ],
      "stateMutability": "view",
      "type": "function",
      "constant": true
    },
    {
      "inputs": [],
      "name": "price",
      "outputs": [
        {
          "internalType": "uint256",
          "name": "",
          "type": "uint256"
        }
      ],
      "stateMutability": "view",
      "type": "function",
      "constant": true
    },
    {
      "inputs": [],
      "name": "renounceOwnership",
      "outputs": [],
      "stateMutability": "nonpayable",
      "type": "function"
    },
    {
      "inputs": [
        {
          "internalType": "uint256",
          "name": "_tokenId",
          "type": "uint256"
        },
        {
          "internalType": "uint256",
          "name": "_salePrice",
          "type": "uint256"
        }
      ],
      "name": "royaltyInfo",
      "outputs": [
        {
          "internalType": "address",
          "name": "",
          "type": "address"
        },
        {
          "internalType": "uint256",
          "name": "",
          "type": "uint256"
        }
      ],
      "stateMutability": "view",
      "type": "function",
      "constant": true
    },
    {
      "inputs": [],
      "name": "royaltyPercentage",
      "outputs": [
        {
          "internalType": "uint96",
          "name": "",
          "type": "uint96"
        }
      ],
      "stateMutability": "view",
      "type": "function",
      "constant": true
    },
    {
      "inputs": [
        {
          "internalType": "address",
          "name": "from",
          "type": "address"
        },
        {
          "internalType": "address",
          "name": "to",
          "type": "address"
        },
        {
          "internalType": "uint256",
          "name": "tokenId",
          "type": "uint256"
        }
      ],
      "name": "safeTransferFrom",
      "outputs": [],
      "stateMutability": "nonpayable",
      "type": "function"
    },
    {
      "inputs": [
        {
          "internalType": "address",
          "name": "from",
          "type": "address"
        },
        {
          "internalType": "address",
          "name": "to",
          "type": "address"
        },
        {
          "internalType": "uint256",
          "name": "tokenId",
          "type": "uint256"
        },
        {
          "internalType": "bytes",
          "name": "_data",
          "type": "bytes"
        }
      ],
      "name": "safeTransferFrom",
      "outputs": [],
      "stateMutability": "nonpayable",
      "type": "function"
    },
    {
      "inputs": [
        {
          "internalType": "address",
          "name": "operator",
          "type": "address"
        },
        {
          "internalType": "bool",
          "name": "approved",
          "type": "bool"
        }
      ],
      "name": "setApprovalForAll",
      "outputs": [],
      "stateMutability": "nonpayable",
      "type": "function"
    },
    {
      "inputs": [],
      "name": "symbol",
      "outputs": [
        {
          "internalType": "string",
          "name": "",
          "type": "string"
        }
      ],
      "stateMutability": "view",
      "type": "function",
      "constant": true
    },
    {
      "inputs": [
        {
          "internalType": "uint256",
          "name": "index",
          "type": "uint256"
        }
      ],
      "name": "tokenByIndex",
      "outputs": [
        {
          "internalType": "uint256",
          "name": "",
          "type": "uint256"
        }
      ],
      "stateMutability": "view",
      "type": "function",
      "constant": true
    },
    {
      "inputs": [
        {
          "internalType": "address",
          "name": "owner",
          "type": "address"
        },
        {
          "internalType": "uint256",
          "name": "index",
          "type": "uint256"
        }
      ],
      "name": "tokenOfOwnerByIndex",
      "outputs": [
        {
          "internalType": "uint256",
          "name": "",
          "type": "uint256"
        }
      ],
      "stateMutability": "view",
      "type": "function",
      "constant": true
    },
    {
      "inputs": [],
      "name": "totalSupply",
      "outputs": [
        {
          "internalType": "uint256",
          "name": "",
          "type": "uint256"
        }
      ],
      "stateMutability": "view",
      "type": "function",
      "constant": true
    },
    {
      "inputs": [
        {
          "internalType": "address",
          "name": "from",
          "type": "address"
        },
        {
          "internalType": "address",
          "name": "to",
          "type": "address"
        },
        {
          "internalType": "uint256",
          "name": "tokenId",
          "type": "uint256"
        }
      ],
      "name": "transferFrom",
      "outputs": [],
      "stateMutability": "nonpayable",
      "type": "function"
    },
    {
      "inputs": [
        {
          "internalType": "address",
          "name": "newOwner",
          "type": "address"
        }
      ],
      "name": "transferOwnership",
      "outputs": [],
      "stateMutability": "nonpayable",
      "type": "function"
    },
    {
      "inputs": [
        {
          "internalType": "string",
          "name": "url",
          "type": "string"
        }
      ],
      "name": "setFrontEnd",
      "outputs": [],
      "stateMutability": "nonpayable",
      "type": "function"
    },
    {
      "inputs": [
        {
          "internalType": "uint256[]",
          "name": "schemeIndexes",
          "type": "uint256[]"
        }
      ],
      "name": "mint",
      "outputs": [],
      "stateMutability": "payable",
      "type": "function",
      "payable": true
    },
    {
      "inputs": [],
      "name": "withdrawFunds",
      "outputs": [],
      "stateMutability": "nonpayable",
      "type": "function"
    },
    {
      "inputs": [],
      "name": "currentSupply",
      "outputs": [
        {
          "internalType": "uint256",
          "name": "",
          "type": "uint256"
        }
      ],
      "stateMutability": "view",
      "type": "function",
      "constant": true
    },
    {
      "inputs": [
        {
          "internalType": "uint256",
          "name": "id",
          "type": "uint256"
        }
      ],
      "name": "tokenURI",
      "outputs": [
        {
          "internalType": "string",
          "name": "",
          "type": "string"
        }
      ],
      "stateMutability": "view",
      "type": "function",
      "constant": true
    },
    {
      "inputs": [
        {
          "internalType": "bytes4",
          "name": "interfaceId",
          "type": "bytes4"
        }
      ],
      "name": "supportsInterface",
      "outputs": [
        {
          "internalType": "bool",
          "name": "",
          "type": "bool"
        }
      ],
      "stateMutability": "view",
      "type": "function",
      "constant": true
    }
  ],
  "bytecode": "0x60806040526004600f60006101000a8154816bffffffffffffffffffffffff02191690836bffffffffffffffffffffffff1602179055503480156200004357600080fd5b506040518060400160405280600a81526020017f43616c63756c61746f72000000000000000000000000000000000000000000008152506040518060400160405280600481526020017f43414c43000000000000000000000000000000000000000000000000000000008152508160009080519060200190620000c892919062001bca565b508060019080519060200190620000e192919062001bca565b50505062000104620000f86200194e60201b60201c565b6200195660201b60201c565b612710600e819055506200013930600f60009054906101000a90046bffffffffffffffffffffffff1662001a1c60201b60201c565b601160405180610140016040528060405180604001604052806040518060400160405280600681526020017f663037313637000000000000000000000000000000000000000000000000000081525081526020016040518060400160405280600681526020017f6666386236640000000000000000000000000000000000000000000000000000815250815250815260200160405180604001604052806040518060400160405280600681526020017f303038316137000000000000000000000000000000000000000000000000000081525081526020016040518060400160405280600681526020017f3030616662390000000000000000000000000000000000000000000000000000815250815250815260200160405180604001604052806040518060400160405280600681526020017f663037313637000000000000000000000000000000000000000000000000000081525081526020016040518060400160405280600681526020017f6666386236640000000000000000000000000000000000000000000000000000815250815250815260200160405180604001604052806040518060400160405280600681526020017f666466636463000000000000000000000000000000000000000000000000000081525081526020016040518060400160405280600681526020017f666266666464000000000000000000000000000000000000000000000000000081525081525081526020016040518060400160405280600681526020017f666564396237000000000000000000000000000000000000000000000000000081525081526020016040518060400160405280600681526020017f376233323361000000000000000000000000000000000000000000000000000081525081526020016040518060400160405280600681526020017f643865316530000000000000000000000000000000000000000000000000000081525081526020016040518060400160405280600681526020017f316531653165000000000000000000000000000000000000000000000000000081525081526020016040518060400160405280600681526020017f666466636463000000000000000000000000000000000000000000000000000081525081526020016040518060400160405280600681526020017f333033313333000000000000000000000000000000000000000000000000000081525081525090806001815401808255809150506001900390600052602060002090600e0201600090919091909150600082015181600001906002620004f992919062001c5b565b506020820151816002019060026200051392919062001c5b565b506040820151816004019060026200052d92919062001c5b565b506060820151816006019060026200054792919062001c5b565b5060808201518160080190805190602001906200056692919062001bca565b5060a08201518160090190805190602001906200058592919062001bca565b5060c082015181600a019080519060200190620005a492919062001bca565b5060e082015181600b019080519060200190620005c392919062001bca565b5061010082015181600c019080519060200190620005e392919062001bca565b5061012082015181600d0190805190602001906200060392919062001bca565b505050601160405180610140016040528060405180604001604052806040518060400160405280600681526020017f333533323236000000000000000000000000000000000000000000000000000081525081526020016040518060400160405280600681526020017f3831376135630000000000000000000000000000000000000000000000000000815250815250815260200160405180604001604052806040518060400160405280600681526020017f326332633263000000000000000000000000000000000000000000000000000081525081526020016040518060400160405280600681526020017f3532353235320000000000000000000000000000000000000000000000000000815250815250815260200160405180604001604052806040518060400160405280600681526020017f653938313531000000000000000000000000000000000000000000000000000081525081526020016040518060400160405280600681526020017f6666616635630000000000000000000000000000000000000000000000000000815250815250815260200160405180604001604052806040518060400160405280600681526020017f323932393239000000000000000000000000000000000000000000000000000081525081526020016040518060400160405280600681526020017f333733373337000000000000000000000000000000000000000000000000000081525081525081526020016040518060400160405280600681526020017f626562303837000000000000000000000000000000000000000000000000000081525081526020016040518060400160405280600681526020017f376233323361000000000000000000000000000000000000000000000000000081525081526020016040518060400160405280600681526020017f643865316530000000000000000000000000000000000000000000000000000081525081526020016040518060400160405280600681526020017f643865316530000000000000000000000000000000000000000000000000000081525081526020016040518060400160405280600681526020017f383838393762000000000000000000000000000000000000000000000000000081525081526020016040518060400160405280600681526020017f643865316530000000000000000000000000000000000000000000000000000081525081525090806001815401808255809150506001900390600052602060002090600e0201600090919091909150600082015181600001906002620009c692919062001c5b565b50602082015181600201906002620009e092919062001c5b565b50604082015181600401906002620009fa92919062001c5b565b5060608201518160060190600262000a1492919062001c5b565b50608082015181600801908051906020019062000a3392919062001bca565b5060a082015181600901908051906020019062000a5292919062001bca565b5060c082015181600a01908051906020019062000a7192919062001bca565b5060e082015181600b01908051906020019062000a9092919062001bca565b5061010082015181600c01908051906020019062000ab092919062001bca565b5061012082015181600d01908051906020019062000ad092919062001bca565b505050601160405180610140016040528060405180604001604052806040518060400160405280600681526020017f323233333362000000000000000000000000000000000000000000000000000081525081526020016040518060400160405280600681526020017f3465373538370000000000000000000000000000000000000000000000000000815250815250815260200160405180604001604052806040518060400160405280600681526020017f306130393038000000000000000000000000000000000000000000000000000081525081526020016040518060400160405280600681526020017f3536346434340000000000000000000000000000000000000000000000000000815250815250815260200160405180604001604052806040518060400160405280600681526020017f323233333362000000000000000000000000000000000000000000000000000081525081526020016040518060400160405280600681526020017f3465373538370000000000000000000000000000000000000000000000000000815250815250815260200160405180604001604052806040518060400160405280600681526020017f356535303366000000000000000000000000000000000000000000000000000081525081526020016040518060400160405280600681526020017f383437303538000000000000000000000000000000000000000000000000000081525081525081526020016040518060400160405280600681526020017f633661633866000000000000000000000000000000000000000000000000000081525081526020016040518060400160405280600681526020017f633661633866000000000000000000000000000000000000000000000000000081525081526020016040518060400160405280600681526020017f656165306435000000000000000000000000000000000000000000000000000081525081526020016040518060400160405280600681526020017f326232343163000000000000000000000000000000000000000000000000000081525081526020016040518060400160405280600681526020017f656165306435000000000000000000000000000000000000000000000000000081525081526020016040518060400160405280600681526020017f656165306435000000000000000000000000000000000000000000000000000081525081525090806001815401808255809150506001900390600052602060002090600e020160009091909190915060008201518160000190600262000e9392919062001c5b565b5060208201518160020190600262000ead92919062001c5b565b5060408201518160040190600262000ec792919062001c5b565b5060608201518160060190600262000ee192919062001c5b565b50608082015181600801908051906020019062000f0092919062001bca565b5060a082015181600901908051906020019062000f1f92919062001bca565b5060c082015181600a01908051906020019062000f3e92919062001bca565b5060e082015181600b01908051906020019062000f5d92919062001bca565b5061010082015181600c01908051906020019062000f7d92919062001bca565b5061012082015181600d01908051906020019062000f9d92919062001bca565b505050601160405180610140016040528060405180604001604052806040518060400160405280600681526020017f396532613262000000000000000000000000000000000000000000000000000081525081526020016040518060400160405280600681526020017f3965326132620000000000000000000000000000000000000000000000000000815250815250815260200160405180604001604052806040518060400160405280600681526020017f396532613262000000000000000000000000000000000000000000000000000081525081526020016040518060400160405280600681526020017f3965326132620000000000000000000000000000000000000000000000000000815250815250815260200160405180604001604052806040518060400160405280600681526020017f396532613262000000000000000000000000000000000000000000000000000081525081526020016040518060400160405280600681526020017f3965326132620000000000000000000000000000000000000000000000000000815250815250815260200160405180604001604052806040518060400160405280600681526020017f666666336230000000000000000000000000000000000000000000000000000081525081526020016040518060400160405280600681526020017f666666336230000000000000000000000000000000000000000000000000000081525081525081526020016040518060400160405280600681526020017f666666336230000000000000000000000000000000000000000000000000000081525081526020016040518060400160405280600681526020017f376233323361000000000000000000000000000000000000000000000000000081525081526020016040518060400160405280600681526020017f663066306339000000000000000000000000000000000000000000000000000081525081526020016040518060400160405280600681526020017f336332343163000000000000000000000000000000000000000000000000000081525081526020016040518060400160405280600681526020017f663066306339000000000000000000000000000000000000000000000000000081525081526020016040518060400160405280600681526020017f336332343163000000000000000000000000000000000000000000000000000081525081525090806001815401808255809150506001900390600052602060002090600e02016000909190919091506000820151816000019060026200136092919062001c5b565b506020820151816002019060026200137a92919062001c5b565b506040820151816004019060026200139492919062001c5b565b50606082015181600601906002620013ae92919062001c5b565b506080820151816008019080519060200190620013cd92919062001bca565b5060a0820151816009019080519060200190620013ec92919062001bca565b5060c082015181600a0190805190602001906200140b92919062001bca565b5060e082015181600b0190805190602001906200142a92919062001bca565b5061010082015181600c0190805190602001906200144a92919062001bca565b5061012082015181600d0190805190602001906200146a92919062001bca565b505050601160405180610140016040528060405180604001604052806040518060400160405280600681526020017f666661646164000000000000000000000000000000000000000000000000000081525081526020016040518060400160405280600681526020017f6666616461640000000000000000000000000000000000000000000000000000815250815250815260200160405180604001604052806040518060400160405280600681526020017f666466666236000000000000000000000000000000000000000000000000000081525081526020016040518060400160405280600681526020017f6664666662360000000000000000000000000000000000000000000000000000815250815250815260200160405180604001604052806040518060400160405280600681526020017f666664366135000000000000000000000000000000000000000000000000000081525081526020016040518060400160405280600681526020017f6666643661350000000000000000000000000000000000000000000000000000815250815250815260200160405180604001604052806040518060400160405280600681526020017f636166666266000000000000000000000000000000000000000000000000000081525081526020016040518060400160405280600681526020017f636166666266000000000000000000000000000000000000000000000000000081525081525081526020016040518060400160405280600681526020017f396266366666000000000000000000000000000000000000000000000000000081525081526020016040518060400160405280600681526020017f663563616333000000000000000000000000000000000000000000000000000081525081526020016040518060400160405280600681526020017f626462326666000000000000000000000000000000000000000000000000000081525081526020016040518060400160405280600681526020017f626462326666000000000000000000000000000000000000000000000000000081525081526020016040518060400160405280600681526020017f666666666663000000000000000000000000000000000000000000000000000081525081526020016040518060400160405280600681526020017f626462326666000000000000000000000000000000000000000000000000000081525081525090806001815401808255809150506001900390600052602060002090600e02016000909190919091506000820151816000019060026200182d92919062001c5b565b506020820151816002019060026200184792919062001c5b565b506040820151816004019060026200186192919062001c5b565b506060820151816006019060026200187b92919062001c5b565b5060808201518160080190805190602001906200189a92919062001bca565b5060a0820151816009019080519060200190620018b992919062001bca565b5060c082015181600a019080519060200190620018d892919062001bca565b5060e082015181600b019080519060200190620018f792919062001bca565b5061010082015181600c0190805190602001906200191792919062001bca565b5061012082015181600d0190805190602001906200193792919062001bca565b505050666a94d74f430000600d8190555062001ec2565b600033905090565b6000600c60009054906101000a900473ffffffffffffffffffffffffffffffffffffffff16905081600c60006101000a81548173ffffffffffffffffffffffffffffffffffffffff021916908373ffffffffffffffffffffffffffffffffffffffff1602179055508173ffffffffffffffffffffffffffffffffffffffff168173ffffffffffffffffffffffffffffffffffffffff167f8be0079c531659141344cd1fd0a4f28419497f9722a3daafe3b4186f6b6457e060405160405180910390a35050565b62001a2c62001bc060201b60201c565b6bffffffffffffffffffffffff16816bffffffffffffffffffffffff16111562001a8d576040517f08c379a000000000000000000000000000000000000000000000000000000000815260040162001a849062001d90565b60405180910390fd5b600073ffffffffffffffffffffffffffffffffffffffff168273ffffffffffffffffffffffffffffffffffffffff16141562001b00576040517f08c379a000000000000000000000000000000000000000000000000000000000815260040162001af79062001db2565b60405180910390fd5b60405180604001604052808373ffffffffffffffffffffffffffffffffffffffff168152602001826bffffffffffffffffffffffff16815250600a60008201518160000160006101000a81548173ffffffffffffffffffffffffffffffffffffffff021916908373ffffffffffffffffffffffffffffffffffffffff16021790555060208201518160000160146101000a8154816bffffffffffffffffffffffff02191690836bffffffffffffffffffffffff1602179055509050505050565b6000612710905090565b82805462001bd89062001de5565b90600052602060002090601f01602090048101928262001bfc576000855562001c48565b82601f1062001c1757805160ff191683800117855562001c48565b8280016001018555821562001c48579182015b8281111562001c4757825182559160200191906001019062001c2a565b5b50905062001c57919062001cb5565b5090565b826002810192821562001ca2579160200282015b8281111562001ca157825182908051906020019062001c9092919062001bca565b509160200191906001019062001c6f565b5b50905062001cb1919062001cd4565b5090565b5b8082111562001cd057600081600090555060010162001cb6565b5090565b5b8082111562001cf8576000818162001cee919062001cfc565b5060010162001cd5565b5090565b50805462001d0a9062001de5565b6000825580601f1062001d1e575062001d3f565b601f01602090049060005260206000209081019062001d3e919062001cb5565b5b50565b600062001d51602a8362001dd4565b915062001d5e8262001e4a565b604082019050919050565b600062001d7860198362001dd4565b915062001d858262001e99565b602082019050919050565b6000602082019050818103600083015262001dab8162001d42565b9050919050565b6000602082019050818103600083015262001dcd8162001d69565b9050919050565b600082825260208201905092915050565b6000600282049050600182168062001dfe57607f821691505b6020821081141562001e155762001e1462001e1b565b5b50919050565b7f4e487b7100000000000000000000000000000000000000000000000000000000600052602260045260246000fd5b7f455243323938313a20726f79616c7479206665652077696c6c2065786365656460008201527f2073616c65507269636500000000000000000000000000000000000000000000602082015250565b7f455243323938313a20696e76616c696420726563656976657200000000000000600082015250565b61511e8062001ed26000396000f3fe6080604052600436106101c25760003560e01c80636352211e116100f7578063a035b1fe11610095578063d40019cb11610064578063d40019cb14610657578063e985e9c514610699578063f2fde38b146106d6578063f8e93ef9146106ff576101c2565b8063a035b1fe1461059d578063a22cb465146105c8578063b88d4fde146105f1578063c87b56dd1461061a576101c2565b8063771282f6116100d1578063771282f6146104f15780638a71bb2d1461051c5780638da5cb5b1461054757806395d89b4114610572576101c2565b80636352211e1461046057806370a082311461049d578063715018a6146104da576101c2565b80632a55205a1161016457806342842e0e1161013e57806342842e0e146103a65780634f6ccce7146103cf5780635593152c1461040c5780635f48f39314610435576101c2565b80632a55205a146103005780632f745c591461033e5780633f88b5921461037b576101c2565b8063095ea7b3116101a0578063095ea7b31461026c57806318160ddd1461029557806323b872dd146102c057806324600fc3146102e9576101c2565b806301ffc9a7146101c757806306fdde0314610204578063081812fc1461022f575b600080fd5b3480156101d357600080fd5b506101ee60048036038101906101e99190613881565b61071b565b6040516101fb9190614172565b60405180910390f35b34801561021057600080fd5b5061021961072d565b604051610226919061418d565b60405180910390f35b34801561023b57600080fd5b506102566004803603810190610251919061396d565b6107bf565b6040516102639190614081565b60405180910390f35b34801561027857600080fd5b50610293600480360381019061028e91906137f8565b610844565b005b3480156102a157600080fd5b506102aa61095c565b6040516102b7919061453a565b60405180910390f35b3480156102cc57600080fd5b506102e760048036038101906102e291906136e2565b610969565b005b3480156102f557600080fd5b506102fe6109c9565b005b34801561030c57600080fd5b506103276004803603810190610322919061399a565b610a5e565b6040516103359291906140e8565b60405180910390f35b34801561034a57600080fd5b50610365600480360381019061036091906137f8565b610c49565b604051610372919061453a565b60405180910390f35b34801561038757600080fd5b50610390610cee565b60405161039d919061418d565b60405180910390f35b3480156103b257600080fd5b506103cd60048036038101906103c891906136e2565b610d7c565b005b3480156103db57600080fd5b506103f660048036038101906103f1919061396d565b610d9c565b604051610403919061453a565b60405180910390f35b34801561041857600080fd5b50610433600480360381019061042e91906138db565b610e0d565b005b34801561044157600080fd5b5061044a610ea3565b604051610457919061453a565b60405180910390f35b34801561046c57600080fd5b506104876004803603810190610482919061396d565b610ea9565b6040516104949190614081565b60405180910390f35b3480156104a957600080fd5b506104c460048036038101906104bf9190613675565b610f5b565b6040516104d1919061453a565b60405180910390f35b3480156104e657600080fd5b506104ef611013565b005b3480156104fd57600080fd5b5061050661109b565b604051610513919061453a565b60405180910390f35b34801561052857600080fd5b506105316110ac565b60405161053e9190614555565b60405180910390f35b34801561055357600080fd5b5061055c6110ca565b6040516105699190614081565b60405180910390f35b34801561057e57600080fd5b506105876110f4565b604051610594919061418d565b60405180910390f35b3480156105a957600080fd5b506105b2611186565b6040516105bf919061453a565b60405180910390f35b3480156105d457600080fd5b506105ef60048036038101906105ea91906137b8565b61118c565b005b3480156105fd57600080fd5b5061061860048036038101906106139190613735565b6111a2565b005b34801561062657600080fd5b50610641600480360381019061063c919061396d565b611204565b60405161064e919061418d565b60405180910390f35b34801561066357600080fd5b5061067e6004803603810190610679919061396d565b6119cc565b604051610690969594939291906141af565b60405180910390f35b3480156106a557600080fd5b506106c060048036038101906106bb91906136a2565b611d48565b6040516106cd9190614172565b60405180910390f35b3480156106e257600080fd5b506106fd60048036038101906106f89190613675565b611ddc565b005b61071960048036038101906107149190613838565b611ed4565b005b6000610726826120e7565b9050919050565b60606000805461073c906148ad565b80601f0160208091040260200160405190810160405280929190818152602001828054610768906148ad565b80156107b55780601f1061078a576101008083540402835291602001916107b5565b820191906000526020600020905b81548152906001019060200180831161079857829003601f168201915b5050505050905090565b60006107ca82612161565b610809576040517f08c379a00000000000000000000000000000000000000000000000000000000081526004016108009061449a565b60405180910390fd5b6004600083815260200190815260200160002060009054906101000a900473ffffffffffffffffffffffffffffffffffffffff169050919050565b600061084f82610ea9565b90508073ffffffffffffffffffffffffffffffffffffffff168373ffffffffffffffffffffffffffffffffffffffff1614156108c0576040517f08c379a00000000000000000000000000000000000000000000000000000000081526004016108b7906144da565b60405180910390fd5b8073ffffffffffffffffffffffffffffffffffffffff166108df6121cd565b73ffffffffffffffffffffffffffffffffffffffff16148061090e575061090d816109086121cd565b611d48565b5b61094d576040517f08c379a0000000000000000000000000000000000000000000000000000000008152600401610944906143da565b60405180910390fd5b61095783836121d5565b505050565b6000600880549050905090565b61097a6109746121cd565b8261228e565b6109b9576040517f08c379a00000000000000000000000000000000000000000000000000000000081526004016109b0906144fa565b60405180910390fd5b6109c483838361236c565b505050565b6109d16121cd565b73ffffffffffffffffffffffffffffffffffffffff166109ef6110ca565b73ffffffffffffffffffffffffffffffffffffffff1614610a45576040517f08c379a0000000000000000000000000000000000000000000000000000000008152600401610a3c906144ba565b60405180910390fd5b6000479050610a5b610a556110ca565b826125d3565b50565b6000806000600b60008681526020019081526020016000206040518060400160405290816000820160009054906101000a900473ffffffffffffffffffffffffffffffffffffffff1673ffffffffffffffffffffffffffffffffffffffff1673ffffffffffffffffffffffffffffffffffffffff1681526020016000820160149054906101000a90046bffffffffffffffffffffffff166bffffffffffffffffffffffff166bffffffffffffffffffffffff16815250509050600073ffffffffffffffffffffffffffffffffffffffff16816000015173ffffffffffffffffffffffffffffffffffffffff161415610bf457600a6040518060400160405290816000820160009054906101000a900473ffffffffffffffffffffffffffffffffffffffff1673ffffffffffffffffffffffffffffffffffffffff1673ffffffffffffffffffffffffffffffffffffffff1681526020016000820160149054906101000a90046bffffffffffffffffffffffff166bffffffffffffffffffffffff166bffffffffffffffffffffffff168152505090505b6000610bfe6126c7565b6bffffffffffffffffffffffff1682602001516bffffffffffffffffffffffff1686610c2a9190614751565b610c349190614720565b90508160000151819350935050509250929050565b6000610c5483610f5b565b8210610c95576040517f08c379a0000000000000000000000000000000000000000000000000000000008152600401610c8c9061425a565b60405180910390fd5b600660008473ffffffffffffffffffffffffffffffffffffffff1673ffffffffffffffffffffffffffffffffffffffff168152602001908152602001600020600083815260200190815260200160002054905092915050565b60108054610cfb906148ad565b80601f0160208091040260200160405190810160405280929190818152602001828054610d27906148ad565b8015610d745780601f10610d4957610100808354040283529160200191610d74565b820191906000526020600020905b815481529060010190602001808311610d5757829003601f168201915b505050505081565b610d97838383604051806020016040528060008152506111a2565b505050565b6000610da661095c565b8210610de7576040517f08c379a0000000000000000000000000000000000000000000000000000000008152600401610dde9061451a565b60405180910390fd5b60088281548110610dfb57610dfa614a15565b5b90600052602060002001549050919050565b610e156121cd565b73ffffffffffffffffffffffffffffffffffffffff16610e336110ca565b73ffffffffffffffffffffffffffffffffffffffff1614610e89576040517f08c379a0000000000000000000000000000000000000000000000000000000008152600401610e80906144ba565b60405180910390fd5b8060109080519060200190610e9f92919061337b565b5050565b600e5481565b6000806002600084815260200190815260200160002060009054906101000a900473ffffffffffffffffffffffffffffffffffffffff169050600073ffffffffffffffffffffffffffffffffffffffff168173ffffffffffffffffffffffffffffffffffffffff161415610f52576040517f08c379a0000000000000000000000000000000000000000000000000000000008152600401610f499061443a565b60405180910390fd5b80915050919050565b60008073ffffffffffffffffffffffffffffffffffffffff168273ffffffffffffffffffffffffffffffffffffffff161415610fcc576040517f08c379a0000000000000000000000000000000000000000000000000000000008152600401610fc39061441a565b60405180910390fd5b600360008373ffffffffffffffffffffffffffffffffffffffff1673ffffffffffffffffffffffffffffffffffffffff168152602001908152602001600020549050919050565b61101b6121cd565b73ffffffffffffffffffffffffffffffffffffffff166110396110ca565b73ffffffffffffffffffffffffffffffffffffffff161461108f576040517f08c379a0000000000000000000000000000000000000000000000000000000008152600401611086906144ba565b60405180910390fd5b61109960006126d1565b565b60006110a76013612797565b905090565b600f60009054906101000a90046bffffffffffffffffffffffff1681565b6000600c60009054906101000a900473ffffffffffffffffffffffffffffffffffffffff16905090565b606060018054611103906148ad565b80601f016020809104026020016040519081016040528092919081815260200182805461112f906148ad565b801561117c5780601f106111515761010080835404028352916020019161117c565b820191906000526020600020905b81548152906001019060200180831161115f57829003601f168201915b5050505050905090565b600d5481565b61119e6111976121cd565b83836127a5565b5050565b6111b36111ad6121cd565b8361228e565b6111f2576040517f08c379a00000000000000000000000000000000000000000000000000000000081526004016111e9906144fa565b60405180910390fd5b6111fe84848484612912565b50505050565b6060600061121183610ea9565b905061121c83612161565b61125b576040517f08c379a0000000000000000000000000000000000000000000000000000000008152600401611252906143ba565b60405180910390fd5b60006012600085815260200190815260200160002054905060006011828154811061128957611288614a15565b5b90600052602060002090600e02016040518061014001604052908160008201600280602002604051908101604052809291906000905b828210156113625783820180546112d5906148ad565b80601f0160208091040260200160405190810160405280929190818152602001828054611301906148ad565b801561134e5780601f106113235761010080835404028352916020019161134e565b820191906000526020600020905b81548152906001019060200180831161133157829003601f168201915b5050505050815260200190600101906112bf565b50505050815260200160028201600280602002604051908101604052809291906000905b8282101561142957838201805461139c906148ad565b80601f01602080910402602001604051908101604052809291908181526020018280546113c8906148ad565b80156114155780601f106113ea57610100808354040283529160200191611415565b820191906000526020600020905b8154815290600101906020018083116113f857829003601f168201915b505050505081526020019060010190611386565b50505050815260200160048201600280602002604051908101604052809291906000905b828210156114f0578382018054611463906148ad565b80601f016020809104026020016040519081016040528092919081815260200182805461148f906148ad565b80156114dc5780601f106114b1576101008083540402835291602001916114dc565b820191906000526020600020905b8154815290600101906020018083116114bf57829003601f168201915b50505050508152602001906001019061144d565b50505050815260200160068201600280602002604051908101604052809291906000905b828210156115b757838201805461152a906148ad565b80601f0160208091040260200160405190810160405280929190818152602001828054611556906148ad565b80156115a35780601f10611578576101008083540402835291602001916115a3565b820191906000526020600020905b81548152906001019060200180831161158657829003601f168201915b505050505081526020019060010190611514565b5050505081526020016008820180546115cf906148ad565b80601f01602080910402602001604051908101604052809291908181526020018280546115fb906148ad565b80156116485780601f1061161d57610100808354040283529160200191611648565b820191906000526020600020905b81548152906001019060200180831161162b57829003601f168201915b50505050508152602001600982018054611661906148ad565b80601f016020809104026020016040519081016040528092919081815260200182805461168d906148ad565b80156116da5780601f106116af576101008083540402835291602001916116da565b820191906000526020600020905b8154815290600101906020018083116116bd57829003601f168201915b50505050508152602001600a820180546116f3906148ad565b80601f016020809104026020016040519081016040528092919081815260200182805461171f906148ad565b801561176c5780601f106117415761010080835404028352916020019161176c565b820191906000526020600020905b81548152906001019060200180831161174f57829003601f168201915b50505050508152602001600b82018054611785906148ad565b80601f01602080910402602001604051908101604052809291908181526020018280546117b1906148ad565b80156117fe5780601f106117d3576101008083540402835291602001916117fe565b820191906000526020600020905b8154815290600101906020018083116117e157829003601f168201915b50505050508152602001600c82018054611817906148ad565b80601f0160208091040260200160405190810160405280929190818152602001828054611843906148ad565b80156118905780601f1061186557610100808354040283529160200191611890565b820191906000526020600020905b81548152906001019060200180831161187357829003601f168201915b50505050508152602001600d820180546118a9906148ad565b80601f01602080910402602001604051908101604052809291908181526020018280546118d5906148ad565b80156119225780601f106118f757610100808354040283529160200191611922565b820191906000526020600020905b81548152906001019060200180831161190557829003601f168201915b505050505081525050905073__CalcLib_______________________________630478bd918487858560106040518663ffffffff1660e01b815260040161196d959493929190614111565b60006040518083038186803b15801561198557600080fd5b505af4158015611999573d6000803e3d6000fd5b505050506040513d6000823e3d601f19601f820116820180604052508101906119c29190613924565b9350505050919050565b601181815481106119dc57600080fd5b90600052602060002090600e02016000915090508060080180546119ff906148ad565b80601f0160208091040260200160405190810160405280929190818152602001828054611a2b906148ad565b8015611a785780601f10611a4d57610100808354040283529160200191611a78565b820191906000526020600020905b815481529060010190602001808311611a5b57829003601f168201915b505050505090806009018054611a8d906148ad565b80601f0160208091040260200160405190810160405280929190818152602001828054611ab9906148ad565b8015611b065780601f10611adb57610100808354040283529160200191611b06565b820191906000526020600020905b815481529060010190602001808311611ae957829003601f168201915b50505050509080600a018054611b1b906148ad565b80601f0160208091040260200160405190810160405280929190818152602001828054611b47906148ad565b8015611b945780601f10611b6957610100808354040283529160200191611b94565b820191906000526020600020905b815481529060010190602001808311611b7757829003601f168201915b50505050509080600b018054611ba9906148ad565b80601f0160208091040260200160405190810160405280929190818152602001828054611bd5906148ad565b8015611c225780601f10611bf757610100808354040283529160200191611c22565b820191906000526020600020905b815481529060010190602001808311611c0557829003601f168201915b50505050509080600c018054611c37906148ad565b80601f0160208091040260200160405190810160405280929190818152602001828054611c63906148ad565b8015611cb05780601f10611c8557610100808354040283529160200191611cb0565b820191906000526020600020905b815481529060010190602001808311611c9357829003601f168201915b50505050509080600d018054611cc5906148ad565b80601f0160208091040260200160405190810160405280929190818152602001828054611cf1906148ad565b8015611d3e5780601f10611d1357610100808354040283529160200191611d3e565b820191906000526020600020905b815481529060010190602001808311611d2157829003601f168201915b5050505050905086565b6000600560008473ffffffffffffffffffffffffffffffffffffffff1673ffffffffffffffffffffffffffffffffffffffff16815260200190815260200160002060008373ffffffffffffffffffffffffffffffffffffffff1673ffffffffffffffffffffffffffffffffffffffff16815260200190815260200160002060009054906101000a900460ff16905092915050565b611de46121cd565b73ffffffffffffffffffffffffffffffffffffffff16611e026110ca565b73ffffffffffffffffffffffffffffffffffffffff1614611e58576040517f08c379a0000000000000000000000000000000000000000000000000000000008152600401611e4f906144ba565b60405180910390fd5b600073ffffffffffffffffffffffffffffffffffffffff168173ffffffffffffffffffffffffffffffffffffffff161415611ec8576040517f08c379a0000000000000000000000000000000000000000000000000000000008152600401611ebf9061429a565b60405180910390fd5b611ed1816126d1565b50565b6000815111611ee257600080fd5b6000815190506000600d5482611ef89190614751565b9050803414611f3c576040517f08c379a0000000000000000000000000000000000000000000000000000000008152600401611f339061423a565b60405180910390fd5b6005821115611f80576040517f08c379a0000000000000000000000000000000000000000000000000000000008152600401611f779061445a565b60405180910390fd5b600e5482611f8e6013612797565b611f9891906146ca565b1115611fd9576040517f08c379a0000000000000000000000000000000000000000000000000000000008152600401611fd0906143fa565b60405180910390fd5b60005b828110156120aa576004848281518110611ff957611ff8614a15565b5b60200260200101511115612042576040517f08c379a00000000000000000000000000000000000000000000000000000000081526004016120399061435a565b60405180910390fd5b61204c601361296e565b60006120586013612797565b905084828151811061206d5761206c614a15565b5b602002602001015160126000838152602001908152602001600020819055506120963382612984565b5080806120a290614910565b915050611fdc565b507f7cc45df6c966bb3aa6d7fc06cd1a3ff223761069d4d81e28180723c65c5ad0a0336040516120da9190614081565b60405180910390a1505050565b60007f2a55205a000000000000000000000000000000000000000000000000000000007bffffffffffffffffffffffffffffffffffffffffffffffffffffffff1916827bffffffffffffffffffffffffffffffffffffffffffffffffffffffff1916148061215a5750612159826129a2565b5b9050919050565b60008073ffffffffffffffffffffffffffffffffffffffff166002600084815260200190815260200160002060009054906101000a900473ffffffffffffffffffffffffffffffffffffffff1673ffffffffffffffffffffffffffffffffffffffff1614159050919050565b600033905090565b816004600083815260200190815260200160002060006101000a81548173ffffffffffffffffffffffffffffffffffffffff021916908373ffffffffffffffffffffffffffffffffffffffff160217905550808273ffffffffffffffffffffffffffffffffffffffff1661224883610ea9565b73ffffffffffffffffffffffffffffffffffffffff167f8c5be1e5ebec7d5bd14f71427d1e84f3dd0314c0f7b2291e5b200ac8c7c3b92560405160405180910390a45050565b600061229982612161565b6122d8576040517f08c379a00000000000000000000000000000000000000000000000000000000081526004016122cf9061439a565b60405180910390fd5b60006122e383610ea9565b90508073ffffffffffffffffffffffffffffffffffffffff168473ffffffffffffffffffffffffffffffffffffffff16148061235257508373ffffffffffffffffffffffffffffffffffffffff1661233a846107bf565b73ffffffffffffffffffffffffffffffffffffffff16145b8061236357506123628185611d48565b5b91505092915050565b8273ffffffffffffffffffffffffffffffffffffffff1661238c82610ea9565b73ffffffffffffffffffffffffffffffffffffffff16146123e2576040517f08c379a00000000000000000000000000000000000000000000000000000000081526004016123d9906142ba565b60405180910390fd5b600073ffffffffffffffffffffffffffffffffffffffff168273ffffffffffffffffffffffffffffffffffffffff161415612452576040517f08c379a0000000000000000000000000000000000000000000000000000000008152600401612449906142fa565b60405180910390fd5b61245d838383612a1c565b6124686000826121d5565b6001600360008573ffffffffffffffffffffffffffffffffffffffff1673ffffffffffffffffffffffffffffffffffffffff16815260200190815260200160002060008282546124b891906147ab565b925050819055506001600360008473ffffffffffffffffffffffffffffffffffffffff1673ffffffffffffffffffffffffffffffffffffffff168152602001908152602001600020600082825461250f91906146ca565b92505081905550816002600083815260200190815260200160002060006101000a81548173ffffffffffffffffffffffffffffffffffffffff021916908373ffffffffffffffffffffffffffffffffffffffff160217905550808273ffffffffffffffffffffffffffffffffffffffff168473ffffffffffffffffffffffffffffffffffffffff167fddf252ad1be2c89b69c2b068fc378daa952ba7f163c4a11628f55a4df523b3ef60405160405180910390a46125ce838383612b30565b505050565b80471015612616576040517f08c379a000000000000000000000000000000000000000000000000000000000815260040161260d9061437a565b60405180910390fd5b60008273ffffffffffffffffffffffffffffffffffffffff168260405161263c9061406c565b60006040518083038185875af1925050503d8060008114612679576040519150601f19603f3d011682016040523d82523d6000602084013e61267e565b606091505b50509050806126c2576040517f08c379a00000000000000000000000000000000000000000000000000000000081526004016126b99061433a565b60405180910390fd5b505050565b6000612710905090565b6000600c60009054906101000a900473ffffffffffffffffffffffffffffffffffffffff16905081600c60006101000a81548173ffffffffffffffffffffffffffffffffffffffff021916908373ffffffffffffffffffffffffffffffffffffffff1602179055508173ffffffffffffffffffffffffffffffffffffffff168173ffffffffffffffffffffffffffffffffffffffff167f8be0079c531659141344cd1fd0a4f28419497f9722a3daafe3b4186f6b6457e060405160405180910390a35050565b600081600001549050919050565b8173ffffffffffffffffffffffffffffffffffffffff168373ffffffffffffffffffffffffffffffffffffffff161415612814576040517f08c379a000000000000000000000000000000000000000000000000000000000815260040161280b9061431a565b60405180910390fd5b80600560008573ffffffffffffffffffffffffffffffffffffffff1673ffffffffffffffffffffffffffffffffffffffff16815260200190815260200160002060008473ffffffffffffffffffffffffffffffffffffffff1673ffffffffffffffffffffffffffffffffffffffff16815260200190815260200160002060006101000a81548160ff0219169083151502179055508173ffffffffffffffffffffffffffffffffffffffff168373ffffffffffffffffffffffffffffffffffffffff167f17307eab39ab6107e8899845ad3d59bd9653f200f220920489ca2b5937696c31836040516129059190614172565b60405180910390a3505050565b61291d84848461236c565b61292984848484612b35565b612968576040517f08c379a000000000000000000000000000000000000000000000000000000000815260040161295f9061427a565b60405180910390fd5b50505050565b6001816000016000828254019250508190555050565b61299e828260405180602001604052806000815250612ccc565b5050565b60007f780e9d63000000000000000000000000000000000000000000000000000000007bffffffffffffffffffffffffffffffffffffffffffffffffffffffff1916827bffffffffffffffffffffffffffffffffffffffffffffffffffffffff19161480612a155750612a1482612d27565b5b9050919050565b612a27838383612e09565b600073ffffffffffffffffffffffffffffffffffffffff168373ffffffffffffffffffffffffffffffffffffffff161415612a6a57612a6581612e0e565b612aa9565b8173ffffffffffffffffffffffffffffffffffffffff168373ffffffffffffffffffffffffffffffffffffffff1614612aa857612aa78382612e57565b5b5b600073ffffffffffffffffffffffffffffffffffffffff168273ffffffffffffffffffffffffffffffffffffffff161415612aec57612ae781612fc4565b612b2b565b8273ffffffffffffffffffffffffffffffffffffffff168273ffffffffffffffffffffffffffffffffffffffff1614612b2a57612b298282613095565b5b5b505050565b505050565b6000612b568473ffffffffffffffffffffffffffffffffffffffff16613114565b15612cbf578373ffffffffffffffffffffffffffffffffffffffff1663150b7a02612b7f6121cd565b8786866040518563ffffffff1660e01b8152600401612ba1949392919061409c565b602060405180830381600087803b158015612bbb57600080fd5b505af1925050508015612bec57506040513d601f19601f82011682018060405250810190612be991906138ae565b60015b612c6f573d8060008114612c1c576040519150601f19603f3d011682016040523d82523d6000602084013e612c21565b606091505b50600081511415612c67576040517f08c379a0000000000000000000000000000000000000000000000000000000008152600401612c5e9061427a565b60405180910390fd5b805181602001fd5b63150b7a0260e01b7bffffffffffffffffffffffffffffffffffffffffffffffffffffffff1916817bffffffffffffffffffffffffffffffffffffffffffffffffffffffff191614915050612cc4565b600190505b949350505050565b612cd68383613137565b612ce36000848484612b35565b612d22576040517f08c379a0000000000000000000000000000000000000000000000000000000008152600401612d199061427a565b60405180910390fd5b505050565b60007f80ac58cd000000000000000000000000000000000000000000000000000000007bffffffffffffffffffffffffffffffffffffffffffffffffffffffff1916827bffffffffffffffffffffffffffffffffffffffffffffffffffffffff19161480612df257507f5b5e139f000000000000000000000000000000000000000000000000000000007bffffffffffffffffffffffffffffffffffffffffffffffffffffffff1916827bffffffffffffffffffffffffffffffffffffffffffffffffffffffff1916145b80612e025750612e0182613311565b5b9050919050565b505050565b6008805490506009600083815260200190815260200160002081905550600881908060018154018082558091505060019003906000526020600020016000909190919091505550565b60006001612e6484610f5b565b612e6e91906147ab565b9050600060076000848152602001908152602001600020549050818114612f53576000600660008673ffffffffffffffffffffffffffffffffffffffff1673ffffffffffffffffffffffffffffffffffffffff168152602001908152602001600020600084815260200190815260200160002054905080600660008773ffffffffffffffffffffffffffffffffffffffff1673ffffffffffffffffffffffffffffffffffffffff168152602001908152602001600020600084815260200190815260200160002081905550816007600083815260200190815260200160002081905550505b6007600084815260200190815260200160002060009055600660008573ffffffffffffffffffffffffffffffffffffffff1673ffffffffffffffffffffffffffffffffffffffff16815260200190815260200160002060008381526020019081526020016000206000905550505050565b60006001600880549050612fd891906147ab565b905060006009600084815260200190815260200160002054905060006008838154811061300857613007614a15565b5b90600052602060002001549050806008838154811061302a57613029614a15565b5b906000526020600020018190555081600960008381526020019081526020016000208190555060096000858152602001908152602001600020600090556008805480613079576130786149e6565b5b6001900381819060005260206000200160009055905550505050565b60006130a083610f5b565b905081600660008573ffffffffffffffffffffffffffffffffffffffff1673ffffffffffffffffffffffffffffffffffffffff168152602001908152602001600020600083815260200190815260200160002081905550806007600084815260200190815260200160002081905550505050565b6000808273ffffffffffffffffffffffffffffffffffffffff163b119050919050565b600073ffffffffffffffffffffffffffffffffffffffff168273ffffffffffffffffffffffffffffffffffffffff1614156131a7576040517f08c379a000000000000000000000000000000000000000000000000000000000815260040161319e9061447a565b60405180910390fd5b6131b081612161565b156131f0576040517f08c379a00000000000000000000000000000000000000000000000000000000081526004016131e7906142da565b60405180910390fd5b6131fc60008383612a1c565b6001600360008473ffffffffffffffffffffffffffffffffffffffff1673ffffffffffffffffffffffffffffffffffffffff168152602001908152602001600020600082825461324c91906146ca565b92505081905550816002600083815260200190815260200160002060006101000a81548173ffffffffffffffffffffffffffffffffffffffff021916908373ffffffffffffffffffffffffffffffffffffffff160217905550808273ffffffffffffffffffffffffffffffffffffffff16600073ffffffffffffffffffffffffffffffffffffffff167fddf252ad1be2c89b69c2b068fc378daa952ba7f163c4a11628f55a4df523b3ef60405160405180910390a461330d60008383612b30565b5050565b60007f01ffc9a7000000000000000000000000000000000000000000000000000000007bffffffffffffffffffffffffffffffffffffffffffffffffffffffff1916827bffffffffffffffffffffffffffffffffffffffffffffffffffffffff1916149050919050565b828054613387906148ad565b90600052602060002090601f0160209004810192826133a957600085556133f0565b82601f106133c257805160ff19168380011785556133f0565b828001600101855582156133f0579182015b828111156133ef5782518255916020019190600101906133d4565b5b5090506133fd9190613401565b5090565b5b8082111561341a576000816000905550600101613402565b5090565b600061343161342c84614595565b614570565b9050808382526020820190508285602086028201111561345457613453614a78565b5b60005b85811015613484578161346a8882613660565b845260208401935060208301925050600181019050613457565b5050509392505050565b60006134a161349c846145c1565b614570565b9050828152602081018484840111156134bd576134bc614a7d565b5b6134c884828561486b565b509392505050565b60006134e36134de846145f2565b614570565b9050828152602081018484840111156134ff576134fe614a7d565b5b61350a84828561486b565b509392505050565b6000613525613520846145f2565b614570565b90508281526020810184848401111561354157613540614a7d565b5b61354c84828561487a565b509392505050565b6000813590506135638161508c565b92915050565b600082601f83011261357e5761357d614a73565b5b813561358e84826020860161341e565b91505092915050565b6000813590506135a6816150a3565b92915050565b6000813590506135bb816150ba565b92915050565b6000815190506135d0816150ba565b92915050565b600082601f8301126135eb576135ea614a73565b5b81356135fb84826020860161348e565b91505092915050565b600082601f83011261361957613618614a73565b5b81356136298482602086016134d0565b91505092915050565b600082601f83011261364757613646614a73565b5b8151613657848260208601613512565b91505092915050565b60008135905061366f816150d1565b92915050565b60006020828403121561368b5761368a614a87565b5b600061369984828501613554565b91505092915050565b600080604083850312156136b9576136b8614a87565b5b60006136c785828601613554565b92505060206136d885828601613554565b9150509250929050565b6000806000606084860312156136fb576136fa614a87565b5b600061370986828701613554565b935050602061371a86828701613554565b925050604061372b86828701613660565b9150509250925092565b6000806000806080858703121561374f5761374e614a87565b5b600061375d87828801613554565b945050602061376e87828801613554565b935050604061377f87828801613660565b925050606085013567ffffffffffffffff8111156137a05761379f614a82565b5b6137ac878288016135d6565b91505092959194509250565b600080604083850312156137cf576137ce614a87565b5b60006137dd85828601613554565b92505060206137ee85828601613597565b9150509250929050565b6000806040838503121561380f5761380e614a87565b5b600061381d85828601613554565b925050602061382e85828601613660565b9150509250929050565b60006020828403121561384e5761384d614a87565b5b600082013567ffffffffffffffff81111561386c5761386b614a82565b5b61387884828501613569565b91505092915050565b60006020828403121561389757613896614a87565b5b60006138a5848285016135ac565b91505092915050565b6000602082840312156138c4576138c3614a87565b5b60006138d2848285016135c1565b91505092915050565b6000602082840312156138f1576138f0614a87565b5b600082013567ffffffffffffffff81111561390f5761390e614a82565b5b61391b84828501613604565b91505092915050565b60006020828403121561393a57613939614a87565b5b600082015167ffffffffffffffff81111561395857613957614a82565b5b61396484828501613632565b91505092915050565b60006020828403121561398357613982614a87565b5b600061399184828501613660565b91505092915050565b600080604083850312156139b1576139b0614a87565b5b60006139bf85828601613660565b92505060206139d085828601613660565b9150509250929050565b60006139e68383613b02565b905092915050565b6139f7816147df565b82525050565b613a06816147df565b82525050565b6000613a1782614642565b613a218185614670565b935083602082028501613a3385614623565b8060005b85811015613a6f5784840389528151613a5085826139da565b9450613a5b83614663565b925060208a01995050600181019050613a37565b50829750879550505050505092915050565b613a8a816147f1565b82525050565b6000613a9b8261464d565b613aa5818561467b565b9350613ab581856020860161487a565b613abe81614a8c565b840191505092915050565b6000613ad482614658565b613ade8185614697565b9350613aee81856020860161487a565b613af781614a8c565b840191505092915050565b6000613b0d82614658565b613b1781856146b9565b9350613b2781856020860161487a565b613b3081614a8c565b840191505092915050565b60008154613b48816148ad565b613b5281866146a8565b94506001821660008114613b6d5760018114613b7f57613bb2565b60ff1983168652602086019350613bb2565b613b888561462d565b60005b83811015613baa57815481890152600182019150602081019050613b8b565b808801955050505b50505092915050565b6000613bc8601383614697565b9150613bd382614a9d565b602082019050919050565b6000613beb602b83614697565b9150613bf682614ac6565b604082019050919050565b6000613c0e603283614697565b9150613c1982614b15565b604082019050919050565b6000613c31602683614697565b9150613c3c82614b64565b604082019050919050565b6000613c54602583614697565b9150613c5f82614bb3565b604082019050919050565b6000613c77601c83614697565b9150613c8282614c02565b602082019050919050565b6000613c9a602483614697565b9150613ca582614c2b565b604082019050919050565b6000613cbd601983614697565b9150613cc882614c7a565b602082019050919050565b6000613ce0603a83614697565b9150613ceb82614ca3565b604082019050919050565b6000613d03601383614697565b9150613d0e82614cf2565b602082019050919050565b6000613d26601d83614697565b9150613d3182614d1b565b602082019050919050565b6000613d49602c83614697565b9150613d5482614d44565b604082019050919050565b6000613d6c600983614697565b9150613d7782614d93565b602082019050919050565b6000613d8f603883614697565b9150613d9a82614dbc565b604082019050919050565b6000613db2600883614697565b9150613dbd82614e0b565b602082019050919050565b6000613dd5602a83614697565b9150613de082614e34565b604082019050919050565b6000613df8602983614697565b9150613e0382614e83565b604082019050919050565b6000613e1b601183614697565b9150613e2682614ed2565b602082019050919050565b6000613e3e602083614697565b9150613e4982614efb565b602082019050919050565b6000613e61602c83614697565b9150613e6c82614f24565b604082019050919050565b6000613e84602083614697565b9150613e8f82614f73565b602082019050919050565b6000613ea7602183614697565b9150613eb282614f9c565b604082019050919050565b6000613eca60008361468c565b9150613ed582614feb565b600082019050919050565b6000613eed603183614697565b9150613ef882614fee565b604082019050919050565b6000613f10602c83614697565b9150613f1b8261503d565b604082019050919050565b6000610140830160008301518482036000860152613f448282613a0c565b91505060208301518482036020860152613f5e8282613a0c565b91505060408301518482036040860152613f788282613a0c565b91505060608301518482036060860152613f928282613a0c565b91505060808301518482036080860152613fac8282613b02565b91505060a083015184820360a0860152613fc68282613b02565b91505060c083015184820360c0860152613fe08282613b02565b91505060e083015184820360e0860152613ffa8282613b02565b9150506101008301518482036101008601526140168282613b02565b9150506101208301518482036101208601526140328282613b02565b9150508091505092915050565b61404881614849565b82525050565b61405781614849565b82525050565b61406681614853565b82525050565b600061407782613ebd565b9150819050919050565b600060208201905061409660008301846139ee565b92915050565b60006080820190506140b160008301876139ee565b6140be60208301866139ee565b6140cb604083018561403f565b81810360608301526140dd8184613a90565b905095945050505050565b60006040820190506140fd60008301856139ee565b61410a602083018461403f565b9392505050565b600060a08201905061412660008301886139fd565b614133602083018761404e565b614140604083018661404e565b81810360608301526141528185613f26565b905081810360808301526141668184613b3b565b90509695505050505050565b60006020820190506141876000830184613a81565b92915050565b600060208201905081810360008301526141a78184613ac9565b905092915050565b600060c08201905081810360008301526141c98189613ac9565b905081810360208301526141dd8188613ac9565b905081810360408301526141f18187613ac9565b905081810360608301526142058186613ac9565b905081810360808301526142198185613ac9565b905081810360a083015261422d8184613ac9565b9050979650505050505050565b6000602082019050818103600083015261425381613bbb565b9050919050565b6000602082019050818103600083015261427381613bde565b9050919050565b6000602082019050818103600083015261429381613c01565b9050919050565b600060208201905081810360008301526142b381613c24565b9050919050565b600060208201905081810360008301526142d381613c47565b9050919050565b600060208201905081810360008301526142f381613c6a565b9050919050565b6000602082019050818103600083015261431381613c8d565b9050919050565b6000602082019050818103600083015261433381613cb0565b9050919050565b6000602082019050818103600083015261435381613cd3565b9050919050565b6000602082019050818103600083015261437381613cf6565b9050919050565b6000602082019050818103600083015261439381613d19565b9050919050565b600060208201905081810360008301526143b381613d3c565b9050919050565b600060208201905081810360008301526143d381613d5f565b9050919050565b600060208201905081810360008301526143f381613d82565b9050919050565b6000602082019050818103600083015261441381613da5565b9050919050565b6000602082019050818103600083015261443381613dc8565b9050919050565b6000602082019050818103600083015261445381613deb565b9050919050565b6000602082019050818103600083015261447381613e0e565b9050919050565b6000602082019050818103600083015261449381613e31565b9050919050565b600060208201905081810360008301526144b381613e54565b9050919050565b600060208201905081810360008301526144d381613e77565b9050919050565b600060208201905081810360008301526144f381613e9a565b9050919050565b6000602082019050818103600083015261451381613ee0565b9050919050565b6000602082019050818103600083015261453381613f03565b9050919050565b600060208201905061454f600083018461403f565b92915050565b600060208201905061456a600083018461405d565b92915050565b600061457a61458b565b905061458682826148df565b919050565b6000604051905090565b600067ffffffffffffffff8211156145b0576145af614a44565b5b602082029050602081019050919050565b600067ffffffffffffffff8211156145dc576145db614a44565b5b6145e582614a8c565b9050602081019050919050565b600067ffffffffffffffff82111561460d5761460c614a44565b5b61461682614a8c565b9050602081019050919050565b6000819050919050565b60008190508160005260206000209050919050565b600060029050919050565b600081519050919050565b600081519050919050565b6000602082019050919050565b600081905092915050565b600082825260208201905092915050565b600081905092915050565b600082825260208201905092915050565b600082825260208201905092915050565b600082825260208201905092915050565b60006146d582614849565b91506146e083614849565b9250827fffffffffffffffffffffffffffffffffffffffffffffffffffffffffffffffff0382111561471557614714614959565b5b828201905092915050565b600061472b82614849565b915061473683614849565b92508261474657614745614988565b5b828204905092915050565b600061475c82614849565b915061476783614849565b9250817fffffffffffffffffffffffffffffffffffffffffffffffffffffffffffffffff04831182151516156147a05761479f614959565b5b828202905092915050565b60006147b682614849565b91506147c183614849565b9250828210156147d4576147d3614959565b5b828203905092915050565b60006147ea82614829565b9050919050565b60008115159050919050565b60007fffffffff0000000000000000000000000000000000000000000000000000000082169050919050565b600073ffffffffffffffffffffffffffffffffffffffff82169050919050565b6000819050919050565b60006bffffffffffffffffffffffff82169050919050565b82818337600083830152505050565b60005b8381101561489857808201518184015260208101905061487d565b838111156148a7576000848401525b50505050565b600060028204905060018216806148c557607f821691505b602082108114156148d9576148d86149b7565b5b50919050565b6148e882614a8c565b810181811067ffffffffffffffff8211171561490757614906614a44565b5b80604052505050565b600061491b82614849565b91507fffffffffffffffffffffffffffffffffffffffffffffffffffffffffffffffff82141561494e5761494d614959565b5b600182019050919050565b7f4e487b7100000000000000000000000000000000000000000000000000000000600052601160045260246000fd5b7f4e487b7100000000000000000000000000000000000000000000000000000000600052601260045260246000fd5b7f4e487b7100000000000000000000000000000000000000000000000000000000600052602260045260246000fd5b7f4e487b7100000000000000000000000000000000000000000000000000000000600052603160045260246000fd5b7f4e487b7100000000000000000000000000000000000000000000000000000000600052603260045260246000fd5b7f4e487b7100000000000000000000000000000000000000000000000000000000600052604160045260246000fd5b600080fd5b600080fd5b600080fd5b600080fd5b600080fd5b6000601f19601f8301169050919050565b7f73656e6420636f727265637420616d6f756e7400000000000000000000000000600082015250565b7f455243373231456e756d657261626c653a206f776e657220696e646578206f7560008201527f74206f6620626f756e6473000000000000000000000000000000000000000000602082015250565b7f4552433732313a207472616e7366657220746f206e6f6e20455243373231526560008201527f63656976657220696d706c656d656e7465720000000000000000000000000000602082015250565b7f4f776e61626c653a206e6577206f776e657220697320746865207a65726f206160008201527f6464726573730000000000000000000000000000000000000000000000000000602082015250565b7f4552433732313a207472616e736665722066726f6d20696e636f72726563742060008201527f6f776e6572000000000000000000000000000000000000000000000000000000602082015250565b7f4552433732313a20746f6b656e20616c7265616479206d696e74656400000000600082015250565b7f4552433732313a207472616e7366657220746f20746865207a65726f2061646460008201527f7265737300000000000000000000000000000000000000000000000000000000602082015250565b7f4552433732313a20617070726f766520746f2063616c6c657200000000000000600082015250565b7f416464726573733a20756e61626c6520746f2073656e642076616c75652c207260008201527f6563697069656e74206d61792068617665207265766572746564000000000000602082015250565b7f636f6c6f7220646f65736e277420657869737400000000000000000000000000600082015250565b7f416464726573733a20696e73756666696369656e742062616c616e6365000000600082015250565b7f4552433732313a206f70657261746f7220717565727920666f72206e6f6e657860008201527f697374656e7420746f6b656e0000000000000000000000000000000000000000602082015250565b7f6e6f742065786973740000000000000000000000000000000000000000000000600082015250565b7f4552433732313a20617070726f76652063616c6c6572206973206e6f74206f7760008201527f6e6572206e6f7220617070726f76656420666f7220616c6c0000000000000000602082015250565b7f6174206c696d6974000000000000000000000000000000000000000000000000600082015250565b7f4552433732313a2062616c616e636520717565727920666f7220746865207a6560008201527f726f206164647265737300000000000000000000000000000000000000000000602082015250565b7f4552433732313a206f776e657220717565727920666f72206e6f6e657869737460008201527f656e7420746f6b656e0000000000000000000000000000000000000000000000602082015250565b7f746f6f206d616e79206d696e7473203a28000000000000000000000000000000600082015250565b7f4552433732313a206d696e7420746f20746865207a65726f2061646472657373600082015250565b7f4552433732313a20617070726f76656420717565727920666f72206e6f6e657860008201527f697374656e7420746f6b656e0000000000000000000000000000000000000000602082015250565b7f4f776e61626c653a2063616c6c6572206973206e6f7420746865206f776e6572600082015250565b7f4552433732313a20617070726f76616c20746f2063757272656e74206f776e6560008201527f7200000000000000000000000000000000000000000000000000000000000000602082015250565b50565b7f4552433732313a207472616e736665722063616c6c6572206973206e6f74206f60008201527f776e6572206e6f7220617070726f766564000000000000000000000000000000602082015250565b7f455243373231456e756d657261626c653a20676c6f62616c20696e646578206f60008201527f7574206f6620626f756e64730000000000000000000000000000000000000000602082015250565b615095816147df565b81146150a057600080fd5b50565b6150ac816147f1565b81146150b757600080fd5b50565b6150c3816147fd565b81146150ce57600080fd5b50565b6150da81614849565b81146150e557600080fd5b5056fea2646970667358221220e4aa27233dde5bb9b1bbfaa3edfca4a438221822a2d25dd627baa75943c7373564736f6c63430008070033",
  "immutableReferences": {},
  "source": "// '''''''''''''''''''''''...............................................\r\n// '.....................................................................\r\n// '..,cllllllllllllllllllllllllllllllllllllllllllllllllllllllllllllc;...\r\n// '..;ddlllllllllllllllllllllccccccccccccccccccccccccccccccccccccclxl'..\r\n// '..:dc,,,;;;;;,,,,,,,,,,,,,,,,,,,,,,,,,,,,,''''''''''''''''''...'ol'..\r\n// '..:dc,,:llllllllllllllllllllllllllllllllllllllllllllllllllllc,.'ol'..\r\n// '..:dc,,cooooooooooooooooooooooooooooooooooooooooooooooooooool,.'ol'..\r\n// '..:dc,,cloooooooooooooooooooooooooooooooooooooooooooooooooool,.'ol'..\r\n// '..:dc,,cooooooooooooooooooooooooooooooooooooooooooooooooooool,.'ol'..\r\n// '..:dc,,cloooooooooooooooooooooooooooooooooooooooooooooooooool,.'ol'..\r\n// '..:dc,,cooooooooooooooooooooooooooooooooooooooooooooooooooool,.'ol'..\r\n// '..:dc,,:ccccccccccccccccccccccccccccccccccccccccccccccccc:cc:'.'ol'..\r\n// '..:dl,,,,,,,,,,,,,,,,,,,,,,,,,''''''''''''''''''''''''.........,ol'..\r\n// '..:dxdooooooooooooooooooooooooooooooooooooooooooooooooooooooooodxl...\r\n// '..;xkxdddddddddxkxddddddddddkkxddddddddddxkkxddddddddddddddddddxkl'..\r\n// '..;xd,'';:c;...:xl;,,,,'''',lxc,,,,,''''.;dd:,,,,,,,''''''''..'cxl'..\r\n// '..;do,'',ld:...:xl,,:dlc;...ld:','',;,...'od;,,,'''';;'........;xl'..\r\n// '..;do,'',ld:...:dl,,;lodo:..ld:',,,cdl'..'od;,,,''',lc'........;xl'..\r\n// '..;xo;'',lc....:xl,,';:cl:..cd:'',,,,,'..'od;,,,''';c;.........;xl'..\r\n// '..:xd,''','....:xl,''''....'lxc'''''.....,od;','''''''.........:xl'..\r\n// '..;xxdodoooooooxkxolllllllloxkdlllllllllloxkdlllllllllllllllllldkl'..\r\n// '..;xxc:::::::;:okdc::::::;;:dxo::::::::;;cxxl:::::::::::;;;;;;:lkl'..\r\n// '..:xo,'';:c;...:xl,',:c:,...ld:'',;:c;'..'od;',''''',,,'.......:xl'..\r\n// '..:xo,'',ld:...:xl,',oOx:...cd:'';ldOx;..'od;,,,''''cxo,.......:xl'..\r\n// '..;xo;'',lc....:xl,',lxd:...ld:'',:lxo,..'od;,,,'''':ol,.......;xl'..\r\n// '..;xo,''','....:xl,'',,,....ld:'''',,'...'od;,,,''''''.........:xl'..\r\n// '..;xxc:::::;;;:okdc::::::;;:dxo::::::;;;;cxxl:::::::::::;;;;;;:lxl'..\r\n// '..;xxollllllllldkxolllllllloxkdlllllllllloxkdlllllllllllllllllldkl'..\r\n// '..;xo;'''','...:xl,'',;;'..'lxc'''',;,...,od;',''''''..........:xl'..\r\n// '..;xo;'',lxc...:xl,,,lkd;...cd:'';cdko,..'od;',,'''',,'........;xl'..\r\n// '..;xo;',cxko'..:xl,',cdxc...ld:'':lxOd;..'od;',,'''';:,........;xl'..\r\n// '..;xo;'',;:;...:dl,'';c:'...cd:'',,;c;'..'od;',,'''''..........;xl'..\r\n// '..;xd:,,,''''.'cxl;,,,''''.,lxc,,,,'''''.;dd:,,,,,,,''''''''..'cxl'..\r\n// '..;xkdollllllloxkxollollllloxkxollllllllldkkdolllllllllllllllloxkl'..\r\n// '..:xd:;;,,,,,',lxo;;;,,,,,';oxl;;;,,,,,,':dxc;;;;;,,,,,,,,,''',cxl'..\r\n// '..;xo;'',cc,...:xc,',:ll;...cd:'',;:lc'..'od;,,,'''',::'.......;xl'..\r\n// '..:xo;'',ox;...:xl,,,:od:...ld:'',;:od;..'od;,,,'''':do,.......;xl'..\r\n// '..;xo;''';l,...:xl,',col,...lx:'',;:ol,..'od;,,,''''','........;xl'..\r\n// '..;xo;'''''....:xl,'''''....lx:''''''....,od;''''''''..........:xl'..\r\n// '..;xxolccccccccdkxlcccccccclxkdlccccccccclxxolcccccccccccccccccdkl'..\r\n// '..;xxlccccc:::cokdlcccccc::cdkdllllllllllllcccccccccccccccc:::cokl'..\r\n// '..;xo;'',::,...:xl,'''......ldc:ccc:::::;;;;;;,,,,,'''''.......:xl'..\r\n// '..;xo,',lddo'..:dl,''',,....cdc:ccccc::::;;;;:lol;,,'''''......:xl'..\r\n// '..:xo,',cddl'..:dl,''',,....cdc:cccc::::::;;;:lol;,,'''''......:xl'..\r\n// '..:xo;'',;;'...:xl,''''.....cdc:ccccc:::::;;;;;,,,,,''''.......:xl'..\r\n// '..;xdc;;;;;,,,,lko:;;;;;,,,;oxoccccccccc::::::::::;;;;;;;;;;,,;lxl'..\r\n// '..;oddooooooooodddoooooooooodddooooooooooooooooooooooooooooooooddc...\r\n// '..,::cc:,''''''''''''',;:::;;::::::::::c:::::::::::::::::::::;;::'...\r\n// '..''''''...............'''''.''''''''..''......'..''''...............\r\n\r\n\r\n\r\n\r\n// SPDX-License-Identifier: MIT\r\npragma solidity 0.8.7;\r\n\r\n\r\nimport \"@openzeppelin/contracts/utils/math/SafeCast.sol\";\r\nimport \"@openzeppelin/contracts/token/ERC721/extensions/ERC721Enumerable.sol\";\r\nimport \"@openzeppelin/contracts/token/ERC721/extensions/ERC721Royalty.sol\";\r\nimport \"@openzeppelin/contracts/token/common/ERC2981.sol\";\r\nimport \"@openzeppelin/contracts/access/Ownable.sol\";\r\nimport \"@openzeppelin/contracts/utils/Counters.sol\";\r\nimport \"@openzeppelin/contracts/utils/Strings.sol\";\r\nimport \"./CalcLib.sol\";\r\n\r\ncontract Calculator is ERC721Enumerable, ERC2981, Ownable {\r\n    using Counters for Counters.Counter;\r\n    \r\n    uint public price;\r\n    uint public maxAmount;\r\n\r\n    uint96 public royaltyPercentage = 4;\r\n\r\n\r\n    string public officialFrontEnd;\r\n\r\n    CalcLib.ColorScheme[] public colorSchemes;\r\n\r\n    mapping(uint => uint) internal idToSchemeIndex;\r\n\r\n\r\n    \r\n\r\n    event TokenMint(address purchaser);\r\n    Counters.Counter private _tokenIdCounter;\r\n\r\n\r\n    constructor() ERC721(\"Calculator\", \"CALC\") {\r\n        maxAmount = 10000;\r\n        _setDefaultRoyalty(address(this), royaltyPercentage);\r\n\r\n        colorSchemes.push(CalcLib.ColorScheme(\r\n            [\"f07167\", \"ff8b6d\"],\r\n            [\"0081a7\", \"00afb9\"],\r\n            [\"f07167\", \"ff8b6d\"],\r\n            [\"fdfcdc\", \"fbffdd\"],\r\n            \"fed9b7\",\r\n            \"7b323a\",\r\n            \"d8e1e0\",\r\n            \"1e1e1e\",\r\n            \"fdfcdc\",\r\n            \"303133\"\r\n            ));\r\n\r\n        colorSchemes.push(CalcLib.ColorScheme(\r\n            [\"353226\",\"817a5c\"],\r\n            [\"2c2c2c\",\"525252\"],\r\n            [\"e98151\",\"ffaf5c\"],\r\n            [\"292929\",\"373737\"],\r\n            \"beb087\",\r\n            \"7b323a\",\r\n            \"d8e1e0\",\r\n            \"d8e1e0\",\r\n            \"88897b\",\r\n            \"d8e1e0\"\r\n            ));\r\n        colorSchemes.push(CalcLib.ColorScheme(\r\n            [\"22333b\",\"4e7587\"],\r\n            [\"0a0908\",\"564d44\"],\r\n            [\"22333b\",\"4e7587\"],\r\n            [\"5e503f\",\"847058\"],\r\n            \"c6ac8f\",\r\n            \"c6ac8f\",\r\n            \"eae0d5\",\r\n            \"2b241c\",\r\n            \"eae0d5\",\r\n            \"eae0d5\"\r\n            ));\r\n        colorSchemes.push(CalcLib.ColorScheme(\r\n            [\"9e2a2b\",\"9e2a2b\"],\r\n            [\"9e2a2b\",\"9e2a2b\"],\r\n            [\"9e2a2b\",\"9e2a2b\"],\r\n            [\"fff3b0\",\"fff3b0\"],\r\n            \"fff3b0\",\r\n            \"7b323a\",\r\n            \"f0f0c9\",\r\n            \"3c241c\",\r\n            \"f0f0c9\",\r\n            \"3c241c\"\r\n            ));\r\n\r\n\r\n\r\n\r\n\r\n        colorSchemes.push(CalcLib.ColorScheme(\r\n            [\"ffadad\",\"ffadad\"],\r\n            [\"fdffb6\",\"fdffb6\"],\r\n            [\"ffd6a5\",\"ffd6a5\"],\r\n            [\"caffbf\",\"caffbf\"],\r\n            \"9bf6ff\",\r\n            \"f5cac3\",\r\n            \"bdb2ff\",\r\n            \"bdb2ff\",\r\n            \"fffffc\",\r\n            \"bdb2ff\"\r\n            ));\r\n\r\n        price = 0.03 ether;\r\n\r\n    }\r\n\r\n    function setFrontEnd(string memory url) public onlyOwner {\r\n        officialFrontEnd = url;\r\n    }\r\n\r\n    function mint(uint[] memory schemeIndexes) public payable {\r\n        require(schemeIndexes.length > 0);\r\n        uint totalMints = schemeIndexes.length;\r\n        uint totalPrice = totalMints * price;\r\n        require(msg.value == totalPrice,\"send correct amount\");\r\n        require(totalMints <= 5, \"too many mints :(\");\r\n        require(_tokenIdCounter.current() + totalMints <= maxAmount, \"at limit\");\r\n        for(uint i=0; i<totalMints; i++) {\r\n            require(schemeIndexes[i]<=4, \"color doesn't exist\");\r\n            _tokenIdCounter.increment();\r\n            uint256 newItemId = _tokenIdCounter.current();\r\n            idToSchemeIndex[newItemId] = schemeIndexes[i];\r\n            _safeMint(msg.sender, newItemId);\r\n        }\r\n\r\n        emit TokenMint(msg.sender);\r\n\r\n    }\r\n\r\n    function withdrawFunds() public onlyOwner {\r\n        uint amount = address(this).balance;\r\n\r\n        Address.sendValue(payable(owner()), amount);\r\n    }\r\n\r\n    function currentSupply() public view returns (uint256) {\r\n        return _tokenIdCounter.current();\r\n    }\r\n\r\n    // function base64ImageUri(uint256 id) public view returns (string memory) {\r\n\r\n    //     address owner = ownerOf(id);\r\n    //     require(_exists(id), \"not exist\");\r\n    //     CalcLib.ColorScheme memory scheme = idToScheme[id];\r\n\r\n    //     return CalcLib.base64ImageOnly(owner, id, scheme);\r\n\r\n    //     // string memory svg = CalcLib.svgURI(owner, id, colorSchemes[0]);\r\n\r\n    //     // return svg;\r\n\r\n    // }\r\n\r\n\r\n    function tokenURI(uint id) public view override returns(string memory) {\r\n        address owner = ownerOf(id);\r\n        require(_exists(id), \"not exist\");\r\n        uint schemeIndex = idToSchemeIndex[id];\r\n        CalcLib.ColorScheme memory scheme = colorSchemes[schemeIndex];\r\n\r\n        return CalcLib.generateTokenURI(owner, id, schemeIndex, scheme, officialFrontEnd);\r\n\r\n\r\n    }\r\n\r\n    function supportsInterface(bytes4 interfaceId) public view virtual override(ERC2981, ERC721Enumerable) returns (bool) {\r\n        return super.supportsInterface(interfaceId);\r\n    }\r\n\r\n    function _burn(uint256 tokenId) internal virtual override {\r\n        super._burn(tokenId);\r\n        _resetTokenRoyalty(tokenId);\r\n    }\r\n\r\n\r\n\r\n\r\n\r\n\r\n\r\n}",
  "sourcePath": "C:\\Users\\13018\\Documents\\code\\solidity\\Calculator2\\contracts\\Calculator.sol",
  "compiler": {
    "name": "solc",
    "version": "0.8.7+commit.e28d00a7.Emscripten.clang"
  },
  "schemaVersion": "3.4.4",
  "updatedAt": "2022-03-05T18:43:33.267Z",
  "networkType": "ethereum",
  "devdoc": {
    "kind": "dev",
    "methods": {
      "approve(address,uint256)": {
        "details": "See {IERC721-approve}."
      },
      "balanceOf(address)": {
        "details": "See {IERC721-balanceOf}."
      },
      "getApproved(uint256)": {
        "details": "See {IERC721-getApproved}."
      },
      "isApprovedForAll(address,address)": {
        "details": "See {IERC721-isApprovedForAll}."
      },
      "name()": {
        "details": "See {IERC721Metadata-name}."
      },
      "owner()": {
        "details": "Returns the address of the current owner."
      },
      "ownerOf(uint256)": {
        "details": "See {IERC721-ownerOf}."
      },
      "renounceOwnership()": {
        "details": "Leaves the contract without owner. It will not be possible to call `onlyOwner` functions anymore. Can only be called by the current owner. NOTE: Renouncing ownership will leave the contract without an owner, thereby removing any functionality that is only available to the owner."
      },
      "royaltyInfo(uint256,uint256)": {
        "details": "Returns how much royalty is owed and to whom, based on a sale price that may be denominated in any unit of exchange. The royalty amount is denominated and should be payed in that same unit of exchange."
      },
      "safeTransferFrom(address,address,uint256)": {
        "details": "See {IERC721-safeTransferFrom}."
      },
      "safeTransferFrom(address,address,uint256,bytes)": {
        "details": "See {IERC721-safeTransferFrom}."
      },
      "setApprovalForAll(address,bool)": {
        "details": "See {IERC721-setApprovalForAll}."
      },
      "symbol()": {
        "details": "See {IERC721Metadata-symbol}."
      },
      "tokenByIndex(uint256)": {
        "details": "See {IERC721Enumerable-tokenByIndex}."
      },
      "tokenOfOwnerByIndex(address,uint256)": {
        "details": "See {IERC721Enumerable-tokenOfOwnerByIndex}."
      },
      "totalSupply()": {
        "details": "See {IERC721Enumerable-totalSupply}."
      },
      "transferFrom(address,address,uint256)": {
        "details": "See {IERC721-transferFrom}."
      },
      "transferOwnership(address)": {
        "details": "Transfers ownership of the contract to a new account (`newOwner`). Can only be called by the current owner."
      }
    },
    "version": 1
  },
  "userdoc": {
    "kind": "user",
    "methods": {},
    "version": 1
  }
}