{
  "contractName": "CalcLib",
  "abi": [
    {
      "inputs": [
        {
          "internalType": "address",
          "name": "owner",
          "type": "address"
        },
        {
          "internalType": "uint256",
          "name": "id",
          "type": "uint256"
        },
        {
          "internalType": "uint256",
          "name": "schemeIndex",
          "type": "uint256"
        },
        {
          "components": [
            {
              "internalType": "string[2]",
              "name": "gradient1",
              "type": "string[2]"
            },
            {
              "internalType": "string[2]",
              "name": "gradient2",
              "type": "string[2]"
            },
            {
              "internalType": "string[2]",
              "name": "gradient3",
              "type": "string[2]"
            },
            {
              "internalType": "string[2]",
              "name": "gradient4",
              "type": "string[2]"
            },
            {
              "internalType": "string",
              "name": "buttonBackground",
              "type": "string"
            },
            {
              "internalType": "string",
              "name": "borderStrip",
              "type": "string"
            },
            {
              "internalType": "string",
              "name": "buttonText",
              "type": "string"
            },
            {
              "internalType": "string",
              "name": "screenText",
              "type": "string"
            },
            {
              "internalType": "string",
              "name": "screen",
              "type": "string"
            },
            {
              "internalType": "string",
              "name": "ownerText",
              "type": "string"
            }
          ],
          "internalType": "struct CalcLib.ColorScheme",
          "name": "scheme",
          "type": "tuple"
        },
        {
          "internalType": "string",
          "name": "frontEnd",
          "type": "string"
        }
      ],
      "name": "generateTokenURI",
      "outputs": [
        {
          "internalType": "string",
          "name": "",
          "type": "string"
        }
      ],
      "stateMutability": "pure",
      "type": "function",
      "constant": true
    },
    {
      "inputs": [
        {
          "internalType": "address",
          "name": "owner",
          "type": "address"
        },
        {
          "internalType": "uint256",
          "name": "id",
          "type": "uint256"
        },
        {
          "components": [
            {
              "internalType": "string[2]",
              "name": "gradient1",
              "type": "string[2]"
            },
            {
              "internalType": "string[2]",
              "name": "gradient2",
              "type": "string[2]"
            },
            {
              "internalType": "string[2]",
              "name": "gradient3",
              "type": "string[2]"
            },
            {
              "internalType": "string[2]",
              "name": "gradient4",
              "type": "string[2]"
            },
            {
              "internalType": "string",
              "name": "buttonBackground",
              "type": "string"
            },
            {
              "internalType": "string",
              "name": "borderStrip",
              "type": "string"
            },
            {
              "internalType": "string",
              "name": "buttonText",
              "type": "string"
            },
            {
              "internalType": "string",
              "name": "screenText",
              "type": "string"
            },
            {
              "internalType": "string",
              "name": "screen",
              "type": "string"
            },
            {
              "internalType": "string",
              "name": "ownerText",
              "type": "string"
            }
          ],
          "internalType": "struct CalcLib.ColorScheme",
          "name": "scheme",
          "type": "tuple"
        }
      ],
      "name": "base64ImageUrl",
      "outputs": [
        {
          "internalType": "string",
          "name": "",
          "type": "string"
        }
      ],
      "stateMutability": "pure",
      "type": "function",
      "constant": true
    },
    {
      "inputs": [
        {
          "internalType": "address",
          "name": "owner",
          "type": "address"
        },
        {
          "internalType": "uint256",
          "name": "id",
          "type": "uint256"
        },
        {
          "internalType": "string",
          "name": "color",
          "type": "string"
        }
      ],
      "name": "OwnerandIdText",
      "outputs": [
        {
          "internalType": "string",
          "name": "",
          "type": "string"
        }
      ],
      "stateMutability": "pure",
      "type": "function",
      "constant": true
    },
    {
      "inputs": [
        {
          "components": [
            {
              "internalType": "string[2]",
              "name": "gradient1",
              "type": "string[2]"
            },
            {
              "internalType": "string[2]",
              "name": "gradient2",
              "type": "string[2]"
            },
            {
              "internalType": "string[2]",
              "name": "gradient3",
              "type": "string[2]"
            },
            {
              "internalType": "string[2]",
              "name": "gradient4",
              "type": "string[2]"
            },
            {
              "internalType": "string",
              "name": "buttonBackground",
              "type": "string"
            },
            {
              "internalType": "string",
              "name": "borderStrip",
              "type": "string"
            },
            {
              "internalType": "string",
              "name": "buttonText",
              "type": "string"
            },
            {
              "internalType": "string",
              "name": "screenText",
              "type": "string"
            },
            {
              "internalType": "string",
              "name": "screen",
              "type": "string"
            },
            {
              "internalType": "string",
              "name": "ownerText",
              "type": "string"
            }
          ],
          "internalType": "struct CalcLib.ColorScheme",
          "name": "scheme",
          "type": "tuple"
        }
      ],
      "name": "getGradients",
      "outputs": [
        {
          "internalType": "string",
          "name": "",
          "type": "string"
        }
      ],
      "stateMutability": "pure",
      "type": "function",
      "constant": true
    },
    {
      "inputs": [
        {
          "components": [
            {
              "internalType": "string[2]",
              "name": "gradient1",
              "type": "string[2]"
            },
            {
              "internalType": "string[2]",
              "name": "gradient2",
              "type": "string[2]"
            },
            {
              "internalType": "string[2]",
              "name": "gradient3",
              "type": "string[2]"
            },
            {
              "internalType": "string[2]",
              "name": "gradient4",
              "type": "string[2]"
            },
            {
              "internalType": "string",
              "name": "buttonBackground",
              "type": "string"
            },
            {
              "internalType": "string",
              "name": "borderStrip",
              "type": "string"
            },
            {
              "internalType": "string",
              "name": "buttonText",
              "type": "string"
            },
            {
              "internalType": "string",
              "name": "screenText",
              "type": "string"
            },
            {
              "internalType": "string",
              "name": "screen",
              "type": "string"
            },
            {
              "internalType": "string",
              "name": "ownerText",
              "type": "string"
            }
          ],
          "internalType": "struct CalcLib.ColorScheme",
          "name": "scheme",
          "type": "tuple"
        }
      ],
      "name": "getBackground",
      "outputs": [
        {
          "internalType": "string",
          "name": "",
          "type": "string"
        }
      ],
      "stateMutability": "pure",
      "type": "function",
      "constant": true
    },
    {
      "inputs": [
        {
          "components": [
            {
              "internalType": "string[2]",
              "name": "gradient1",
              "type": "string[2]"
            },
            {
              "internalType": "string[2]",
              "name": "gradient2",
              "type": "string[2]"
            },
            {
              "internalType": "string[2]",
              "name": "gradient3",
              "type": "string[2]"
            },
            {
              "internalType": "string[2]",
              "name": "gradient4",
              "type": "string[2]"
            },
            {
              "internalType": "string",
              "name": "buttonBackground",
              "type": "string"
            },
            {
              "internalType": "string",
              "name": "borderStrip",
              "type": "string"
            },
            {
              "internalType": "string",
              "name": "buttonText",
              "type": "string"
            },
            {
              "internalType": "string",
              "name": "screenText",
              "type": "string"
            },
            {
              "internalType": "string",
              "name": "screen",
              "type": "string"
            },
            {
              "internalType": "string",
              "name": "ownerText",
              "type": "string"
            }
          ],
          "internalType": "struct CalcLib.ColorScheme",
          "name": "scheme",
          "type": "tuple"
        }
      ],
      "name": "getScreenText",
      "outputs": [
        {
          "internalType": "string",
          "name": "",
          "type": "string"
        }
      ],
      "stateMutability": "pure",
      "type": "function",
      "constant": true
    },
    {
      "inputs": [
        {
          "components": [
            {
              "internalType": "string[2]",
              "name": "gradient1",
              "type": "string[2]"
            },
            {
              "internalType": "string[2]",
              "name": "gradient2",
              "type": "string[2]"
            },
            {
              "internalType": "string[2]",
              "name": "gradient3",
              "type": "string[2]"
            },
            {
              "internalType": "string[2]",
              "name": "gradient4",
              "type": "string[2]"
            },
            {
              "internalType": "string",
              "name": "buttonBackground",
              "type": "string"
            },
            {
              "internalType": "string",
              "name": "borderStrip",
              "type": "string"
            },
            {
              "internalType": "string",
              "name": "buttonText",
              "type": "string"
            },
            {
              "internalType": "string",
              "name": "screenText",
              "type": "string"
            },
            {
              "internalType": "string",
              "name": "screen",
              "type": "string"
            },
            {
              "internalType": "string",
              "name": "ownerText",
              "type": "string"
            }
          ],
          "internalType": "struct CalcLib.ColorScheme",
          "name": "scheme",
          "type": "tuple"
        }
      ],
      "name": "getStyle",
      "outputs": [
        {
          "internalType": "string",
          "name": "",
          "type": "string"
        }
      ],
      "stateMutability": "pure",
      "type": "function",
      "constant": true
    }
  ],
  "bytecode": "0x613ecc610053600b82828239805160001a607314610046577f4e487b7100000000000000000000000000000000000000000000000000000000600052600060045260246000fd5b30600052607381538281f3fe73000000000000000000000000000000000000000030146080604052600436106100875760003560e01c8063b491605c11610065578063b491605c1461011c578063c32d02891461014c578063c98b4b311461017c578063d7be44a9146101ac57610087565b80630478bd911461008c5780633ce61661146100bc57806396ac761a146100ec575b600080fd5b6100a660048036038101906100a1919061110d565b6101dc565b6040516100b39190611aee565b60405180910390f35b6100d660048036038101906100d191906111c0565b61027a565b6040516100e39190611aee565b60405180910390f35b610106600480360381019061010191906111c0565b6104f7565b6040516101139190611aee565b60405180910390f35b610136600480360381019061013191906111c0565b610581565b6040516101439190611aee565b60405180910390f35b6101666004803603810190610161919061109e565b61060e565b6040516101739190611aee565b60405180910390f35b6101966004803603810190610191919061102f565b61072c565b6040516101a39190611aee565b60405180910390f35b6101c660048036038101906101c191906111c0565b61078f565b6040516101d39190611aee565b60405180910390f35b606060006101eb87878661060e565b905061024f6101f9876107d6565b8485610204896107d6565b6102258c73ffffffffffffffffffffffffffffffffffffffff166014610937565b8660405160200161023b969594939291906118e4565b604051602081830303815290604052610b73565b60405160200161025f9190611aaa565b60405160208183030381529060405291505095945050505050565b606060006040518060400160405280601481526020017f3c6c696e6561724772616469656e742069643d22000000000000000000000000815250905060006040518060600160405280603e8152602001613e59603e91399050600060405180606001604052806025815260200161368960259139905060006040518060400160405280601681526020017f22202f3e203c2f6c696e6561724772616469656e743e00000000000000000000815250905060008484886000015160006002811061034657610345611eaa565b5b6020020151858a6000015160016002811061036457610363611eaa565b5b60200201518660405160200161037f96959493929190611758565b60405160208183030381529060405290506000858589602001516000600281106103ac576103ab611eaa565b5b6020020151868b602001516001600281106103ca576103c9611eaa565b5b6020020151876040516020016103e5969594939291906117bb565b6040516020818303038152906040529050600086868a6040015160006002811061041257610411611eaa565b5b6020020151878c604001516001600281106104305761042f611eaa565b5b60200201518860405160200161044b9695949392919061181e565b6040516020818303038152906040529050600087878b6060015160006002811061047857610477611eaa565b5b6020020151888d6060015160016002811061049657610495611eaa565b5b6020020151896040516020016104b196959493929190611881565b6040516020818303038152906040529050838383836040516020016104d9949392919061169b565b60405160208183030381529060405298505050505050505050919050565b606060006040518060400160405280600b81526020017f3c672066696c6c3d202223000000000000000000000000000000000000000000815250905060006040518060e0016040528060ab8152602001613dae60ab91399050818460e00151826040516020016105699392919061166a565b60405160208183030381529060405292505050919050565b606060006040518060400160405280600d81526020017f3c6720207374726f6b653d22230000000000000000000000000000000000000081525090506000604051806101e001604052806101b98152602001613bf56101b991399050818460a00151826040516020016105f69392919061166a565b60405160208183030381529060405292505050919050565b60606000610622858585610120015161072c565b9050600061062f8461027a565b9050600061063c85610581565b90506000610649866104f7565b905060006106568761078f565b905060006106fb6040518060a00160405280606981526020016136ae60699139838787604051806106e001604052806106b981526020016126246106b9913988604051806104c0016040528061049e815260200161375761049e91398d604051806109e001604052806109ac8152602001612cdd6109ac91396040516020016106e7999897969594939291906116d9565b604051602081830303815290604052610b73565b90508060405160200161070e9190611acc565b60405160208183030381529060405296505050505050509392505050565b606060006107518573ffffffffffffffffffffffffffffffffffffffff166014610937565b9050600061075e856107d6565b9050838282604051602001610775939291906119aa565b604051602081830303815290604052925050509392505050565b60608160c0015182610120015183608001518461010001518560a001516040516020016107c0959493929190611a1d565b6040516020818303038152906040529050919050565b6060600082141561081e576040518060400160405280600181526020017f30000000000000000000000000000000000000000000000000000000000000008152509050610932565b600082905060005b6000821461085057808061083990611dd2565b915050600a826108499190611c3a565b9150610826565b60008167ffffffffffffffff81111561086c5761086b611ed9565b5b6040519080825280601f01601f19166020018201604052801561089e5781602001600182028036833780820191505090505b5090505b6000851461092b576001826108b79190611cc5565b9150600a856108c69190611e1b565b60306108d29190611be4565b60f81b8183815181106108e8576108e7611eaa565b5b60200101907effffffffffffffffffffffffffffffffffffffffffffffffffffffffffffff1916908160001a905350600a856109249190611c3a565b94506108a2565b8093505050505b919050565b60606000600283600261094a9190611c6b565b6109549190611be4565b67ffffffffffffffff81111561096d5761096c611ed9565b5b6040519080825280601f01601f19166020018201604052801561099f5781602001600182028036833780820191505090505b5090507f3000000000000000000000000000000000000000000000000000000000000000816000815181106109d7576109d6611eaa565b5b60200101907effffffffffffffffffffffffffffffffffffffffffffffffffffffffffffff1916908160001a9053507f780000000000000000000000000000000000000000000000000000000000000081600181518110610a3b57610a3a611eaa565b5b60200101907effffffffffffffffffffffffffffffffffffffffffffffffffffffffffffff1916908160001a90535060006001846002610a7b9190611c6b565b610a859190611be4565b90505b6001811115610b25577f3031323334353637383961626364656600000000000000000000000000000000600f861660108110610ac757610ac6611eaa565b5b1a60f81b828281518110610ade57610add611eaa565b5b60200101907effffffffffffffffffffffffffffffffffffffffffffffffffffffffffffff1916908160001a905350600485901c945080610b1e90611d77565b9050610a88565b5060008414610b69576040517f08c379a0000000000000000000000000000000000000000000000000000000008152600401610b6090611b10565b60405180910390fd5b8091505092915050565b6060600082511415610b9657604051806020016040528060008152509050610cd2565b60006040518060600160405280604081526020016137176040913990506000600360028551610bc59190611be4565b610bcf9190611c3a565b6004610bdb9190611c6b565b67ffffffffffffffff811115610bf457610bf3611ed9565b5b6040519080825280601f01601f191660200182016040528015610c265781602001600182028036833780820191505090505b509050600182016020820185865187015b80821015610c92576003820191508151603f8160121c168501518453600184019350603f81600c1c168501518453600184019350603f8160061c168501518453600184019350603f8116850151845360018401935050610c37565b5050600386510660018114610cae5760028114610cc157610cc9565b603d6001830353603d6002830353610cc9565b603d60018303535b50505080925050505b919050565b6000610cea610ce584611b55565b611b30565b90508082856020860282011115610d0457610d03611f17565b5b60005b85811015610d5257813567ffffffffffffffff811115610d2a57610d29611f08565b5b808601610d378982610dde565b85526020850194506020840193505050600181019050610d07565b5050509392505050565b6000610d6f610d6a84611b7b565b611b30565b905082815260208101848484011115610d8b57610d8a611f1c565b5b610d96848285611d35565b509392505050565b600081359050610dad816125f5565b92915050565b600082601f830112610dc857610dc7611f08565b5b6002610dd5848285610cd7565b91505092915050565b600082601f830112610df357610df2611f08565b5b8135610e03848260208601610d5c565b91505092915050565b60006101408284031215610e2357610e22611f0d565b5b610e2e610140611b30565b9050600082013567ffffffffffffffff811115610e4e57610e4d611f12565b5b610e5a84828501610db3565b600083015250602082013567ffffffffffffffff811115610e7e57610e7d611f12565b5b610e8a84828501610db3565b602083015250604082013567ffffffffffffffff811115610eae57610ead611f12565b5b610eba84828501610db3565b604083015250606082013567ffffffffffffffff811115610ede57610edd611f12565b5b610eea84828501610db3565b606083015250608082013567ffffffffffffffff811115610f0e57610f0d611f12565b5b610f1a84828501610dde565b60808301525060a082013567ffffffffffffffff811115610f3e57610f3d611f12565b5b610f4a84828501610dde565b60a08301525060c082013567ffffffffffffffff811115610f6e57610f6d611f12565b5b610f7a84828501610dde565b60c08301525060e082013567ffffffffffffffff811115610f9e57610f9d611f12565b5b610faa84828501610dde565b60e08301525061010082013567ffffffffffffffff811115610fcf57610fce611f12565b5b610fdb84828501610dde565b6101008301525061012082013567ffffffffffffffff81111561100157611000611f12565b5b61100d84828501610dde565b6101208301525092915050565b6000813590506110298161260c565b92915050565b60008060006060848603121561104857611047611f26565b5b600061105686828701610d9e565b93505060206110678682870161101a565b925050604084013567ffffffffffffffff81111561108857611087611f21565b5b61109486828701610dde565b9150509250925092565b6000806000606084860312156110b7576110b6611f26565b5b60006110c586828701610d9e565b93505060206110d68682870161101a565b925050604084013567ffffffffffffffff8111156110f7576110f6611f21565b5b61110386828701610e0c565b9150509250925092565b600080600080600060a0868803121561112957611128611f26565b5b600061113788828901610d9e565b95505060206111488882890161101a565b94505060406111598882890161101a565b935050606086013567ffffffffffffffff81111561117a57611179611f21565b5b61118688828901610e0c565b925050608086013567ffffffffffffffff8111156111a7576111a6611f21565b5b6111b388828901610dde565b9150509295509295909350565b6000602082840312156111d6576111d5611f26565b5b600082013567ffffffffffffffff8111156111f4576111f3611f21565b5b61120084828501610e0c565b91505092915050565b600061121482611bac565b61121e8185611bc8565b935061122e818560208601611d44565b61123781611f2b565b840191505092915050565b600061124d82611bac565b6112578185611bd9565b9350611267818560208601611d44565b80840191505092915050565b6000611280600c83611bd9565b915061128b82611f3c565b600c82019050919050565b60006112a3602083611bb7565b91506112ae82611f65565b602082019050919050565b60006112c6601183611bd9565b91506112d182611f8e565b601182019050919050565b60006112e9600983611bd9565b91506112f482611fb7565b600982019050919050565b600061130c600983611bd9565b915061131782611fe0565b600982019050919050565b600061132f600d83611bd9565b915061133a82612009565b600d82019050919050565b6000611352600a83611bd9565b915061135d82612032565b600a82019050919050565b6000611375600983611bd9565b91506113808261205b565b600982019050919050565b600061139860cd83611bd9565b91506113a382612084565b60cd82019050919050565b60006113bb600983611bd9565b91506113c682612191565b600982019050919050565b60006113de600783611bd9565b91506113e9826121ba565b600782019050919050565b6000611401601c83611bd9565b915061140c826121e3565b601c82019050919050565b6000611424600183611bd9565b915061142f8261220c565b600182019050919050565b6000611447601883611bd9565b915061145282612235565b601882019050919050565b600061146a609183611bd9565b91506114758261225e565b609182019050919050565b600061148d600283611bd9565b91506114988261231f565b600282019050919050565b60006114b0600683611bd9565b91506114bb82612348565b600682019050919050565b60006114d3600783611bd9565b91506114de82612371565b600782019050919050565b60006114f6600d83611bd9565b91506115018261239a565b600d82019050919050565b6000611519601383611bd9565b9150611524826123c3565b601382019050919050565b600061153c601283611bd9565b9150611547826123ec565b601282019050919050565b600061155f603d83611bd9565b915061156a82612415565b603d82019050919050565b6000611582602483611bd9565b915061158d82612464565b602482019050919050565b60006115a5603083611bd9565b91506115b0826124b3565b603082019050919050565b60006115c8601d83611bd9565b91506115d382612502565b601d82019050919050565b60006115eb602383611bd9565b91506115f68261252b565b602382019050919050565b600061160e600e83611bd9565b91506116198261257a565b600e82019050919050565b6000611631600983611bd9565b915061163c826125a3565b600982019050919050565b6000611654601a83611bd9565b915061165f826125cc565b601a82019050919050565b60006116768286611242565b91506116828285611242565b915061168e8284611242565b9150819050949350505050565b60006116a78287611242565b91506116b38286611242565b91506116bf8285611242565b91506116cb8284611242565b915081905095945050505050565b60006116e5828c611242565b91506116f1828b611242565b91506116fd828a611242565b91506117098289611242565b91506117158288611242565b91506117218287611242565b915061172d8286611242565b91506117398285611242565b91506117458284611242565b91508190509a9950505050505050505050565b60006117648289611242565b915061176f826112dc565b915061177b8288611242565b91506117878287611242565b91506117938286611242565b915061179f8285611242565b91506117ab8284611242565b9150819050979650505050505050565b60006117c78289611242565b91506117d282611368565b91506117de8288611242565b91506117ea8287611242565b91506117f68286611242565b91506118028285611242565b915061180e8284611242565b9150819050979650505050505050565b600061182a8289611242565b9150611835826113ae565b91506118418288611242565b915061184d8287611242565b91506118598286611242565b91506118658285611242565b91506118718284611242565b9150819050979650505050505050565b600061188d8289611242565b915061189882611624565b91506118a48288611242565b91506118b08287611242565b91506118bc8286611242565b91506118c88285611242565b91506118d48284611242565b9150819050979650505050505050565b60006118ef826112ff565b91506118fa82611273565b91506119068289611242565b91506119118261152f565b915061191c8261145d565b91506119288288611242565b915061193382611417565b915061193e8261150c565b915061194a8287611242565b915061195582611575565b91506119618286611242565b915061196c82611601565b91506119788285611242565b9150611983826114e9565b915061198f8284611242565b915061199a82611480565b9150819050979650505050505050565b60006119b582611322565b91506119c18286611242565b91506119cc826115de565b91506119d7826113d1565b91506119e38285611242565b91506119ee82611552565b91506119fa8284611242565b9150611a05826114a3565b9150611a10826114c6565b9150819050949350505050565b6000611a288261138b565b9150611a348288611242565b9150611a3f82611598565b9150611a4b8287611242565b9150611a56826113f4565b9150611a628286611242565b9150611a6d826112b9565b9150611a798285611242565b9150611a848261143a565b9150611a908284611242565b9150611a9b82611345565b91508190509695505050505050565b6000611ab5826115bb565b9150611ac18284611242565b915081905092915050565b6000611ad782611647565b9150611ae38284611242565b915081905092915050565b60006020820190508181036000830152611b088184611209565b905092915050565b60006020820190508181036000830152611b2981611296565b9050919050565b6000611b3a611b4b565b9050611b468282611da1565b919050565b6000604051905090565b600067ffffffffffffffff821115611b7057611b6f611ed9565b5b602082029050919050565b600067ffffffffffffffff821115611b9657611b95611ed9565b5b611b9f82611f2b565b9050602081019050919050565b600081519050919050565b600082825260208201905092915050565b600082825260208201905092915050565b600081905092915050565b6000611bef82611d2b565b9150611bfa83611d2b565b9250827fffffffffffffffffffffffffffffffffffffffffffffffffffffffffffffffff03821115611c2f57611c2e611e4c565b5b828201905092915050565b6000611c4582611d2b565b9150611c5083611d2b565b925082611c6057611c5f611e7b565b5b828204905092915050565b6000611c7682611d2b565b9150611c8183611d2b565b9250817fffffffffffffffffffffffffffffffffffffffffffffffffffffffffffffffff0483118215151615611cba57611cb9611e4c565b5b828202905092915050565b6000611cd082611d2b565b9150611cdb83611d2b565b925082821015611cee57611ced611e4c565b5b828203905092915050565b6000611d0482611d0b565b9050919050565b600073ffffffffffffffffffffffffffffffffffffffff82169050919050565b6000819050919050565b82818337600083830152505050565b60005b83811015611d62578082015181840152602081019050611d47565b83811115611d71576000848401525b50505050565b6000611d8282611d2b565b91506000821415611d9657611d95611e4c565b5b600182039050919050565b611daa82611f2b565b810181811067ffffffffffffffff82111715611dc957611dc8611ed9565b5b80604052505050565b6000611ddd82611d2b565b91507fffffffffffffffffffffffffffffffffffffffffffffffffffffffffffffffff821415611e1057611e0f611e4c565b5b600182019050919050565b6000611e2682611d2b565b9150611e3183611d2b565b925082611e4157611e40611e7b565b5b828206905092915050565b7f4e487b7100000000000000000000000000000000000000000000000000000000600052601160045260246000fd5b7f4e487b7100000000000000000000000000000000000000000000000000000000600052601260045260246000fd5b7f4e487b7100000000000000000000000000000000000000000000000000000000600052603260045260246000fd5b7f4e487b7100000000000000000000000000000000000000000000000000000000600052604160045260246000fd5b600080fd5b600080fd5b600080fd5b600080fd5b600080fd5b600080fd5b600080fd5b6000601f19601f8301169050919050565b7f43616c63756c61746f7220230000000000000000000000000000000000000000600082015250565b7f537472696e67733a20686578206c656e67746820696e73756666696369656e74600082015250565b7f7d202e73637265656e7b66696c6c3a2023000000000000000000000000000000600082015250565b7f4772616469656e74310000000000000000000000000000000000000000000000600082015250565b7f7b226e616d65223a220000000000000000000000000000000000000000000000600082015250565b7f3c746578742066696c6c3d222300000000000000000000000000000000000000600082015250565b7f7d203c2f7374796c653e00000000000000000000000000000000000000000000600082015250565b7f4772616469656e74320000000000000000000000000000000000000000000000600082015250565b7f3c7374796c653e202e6c69676874207b20666f6e743a206974616c696320333060008201527f70782073616e732d73657269663b207d202e74696e79207b20666f6e743a203860208201527f70782073616e732d73657269663b20207d202e6c61726765207b20666f6e743a60408201527f20626f6c6420353070782073616e732d73657269663b207d202e736d616c6c2060608201527f7b20666f6e743a20626f6c6420333070782073616e732d73657269663b207d2060808201527f2e627574746f6e207b20666f6e743a20626f6c6420353070782073616e732d7360a08201527f657269663b2066696c6c3a20230000000000000000000000000000000000000060c082015250565b7f4772616469656e74330000000000000000000000000000000000000000000000600082015250565b7f4f776e65723a2000000000000000000000000000000000000000000000000000600082015250565b7f207d202e627574746f6e4261636b67726f756e647b66696c6c3a202300000000600082015250565b7f2900000000000000000000000000000000000000000000000000000000000000600082015250565b7f7d202e626f7264657253747269707b7374726f6b653a20230000000000000000600082015250565b7f412066756c6c7920776f726b696e672c2066756c6c79206f6e20636861696e2060008201527f63616c63756c61746f722e20546f20656e6a6f793a2053696d706c7920636f7060208201527f792074686520696d6167652075726c2c20616e6420706173746520697420696e60408201527f2061207765622062726f777365722e204f722c207669736974206f7572205b4f60608201527f6666696369616c20576562736974655d28000000000000000000000000000000608082015250565b7f227d000000000000000000000000000000000000000000000000000000000000600082015250565b7f2f31303030300000000000000000000000000000000000000000000000000000600082015250565b7f3c2f746578743e00000000000000000000000000000000000000000000000000600082015250565b7f222c2022696d616765223a202200000000000000000000000000000000000000600082015250565b7f222c202265787465726e616c5f75726c223a2200000000000000000000000000600082015250565b7f222c20226465736372697074696f6e223a220000000000000000000000000000600082015250565b7f3c2f746578743e203c746578742066696c6c3d22236438653165302220783d2260008201527f33302220793d223734332220636c6173733d226d65746164617461223e000000602082015250565b7f222c202261747472696275746573223a205b7b22636f6c6f725f736368656d6560008201527f223a202200000000000000000000000000000000000000000000000000000000602082015250565b7f7d202e6d657461646174617b20666f6e743a20626f6c6420313270782073616e60008201527f732d73657269663b2066696c6c3a202300000000000000000000000000000000602082015250565b7f646174613a6170706c69636174696f6e2f6a736f6e3b6261736536342c000000600082015250565b7f2220783d223139302220793d223734332220636c6173733d226d65746164617460008201527f61223e0000000000000000000000000000000000000000000000000000000000602082015250565b7f227d5d2c20226f776e6572223a22000000000000000000000000000000000000600082015250565b7f4772616469656e74340000000000000000000000000000000000000000000000600082015250565b7f646174613a696d6167652f7376672b786d6c3b6261736536342c000000000000600082015250565b6125fe81611cf9565b811461260957600080fd5b50565b61261581611d2b565b811461262057600080fd5b5056fe203c67207374726f6b653d222333303331333322207374726f6b652d77696474683d2235222066696c6c3d2275726c28234772616469656e74322922203e203c72656374206f6e636c69636b3d2268616e646c654e756d626572283129222072783d22372220783d2235302220793d22353330222077696474683d22383022206865696768743d223830222f3e203c72656374206f6e636c69636b3d2268616e646c654e756d626572283229222072783d22372220783d223135302220793d22353330222077696474683d22383022206865696768743d223830222f3e203c72656374206f6e636c69636b3d2268616e646c654e756d626572283329222072783d22372220783d223235302220793d22353330222077696474683d22383022206865696768743d223830222f3e203c72656374206f6e636c69636b3d2268616e646c654e756d626572283429222072783d22372220783d2235302220793d22343330222077696474683d22383022206865696768743d223830222f3e203c72656374206f6e636c69636b3d2268616e646c654e756d626572283529222072783d22372220783d223135302220793d22343330222077696474683d22383022206865696768743d223830222f3e203c72656374206f6e636c69636b3d2268616e646c654e756d626572283629222072783d22372220783d223235302220793d22343330222077696474683d22383022206865696768743d223830222f3e203c72656374206f6e636c69636b3d2268616e646c654e756d626572283729222072783d22372220783d2235302220793d22333330222077696474683d22383022206865696768743d223830222f3e203c72656374206f6e636c69636b3d2268616e646c654e756d626572283829222072783d22372220783d223135302220793d22333330222077696474683d22383022206865696768743d223830222f3e203c72656374206f6e636c69636b3d2268616e646c654e756d626572283929222072783d22372220783d223235302220793d22333330222077696474683d22383022206865696768743d223830222f3e203c72656374206f6e636c69636b3d2268616e646c654e756d626572283029222072783d22372220783d2235302220793d22363330222077696474683d22383022206865696768743d223830222f3e203c72656374206f6e636c69636b3d2268616e646c654e756d6265722873796d626f6c732e646529222072783d22372220783d223135302220793d22363330222077696474683d22383022206865696768743d223830222f3e202f2f2e203c72656374206f6e636c69636b3d2268616e646c654f70286164642c2073796d626f6c732e61646429222072783d22372220783d223335302220793d22353330222077696474683d2231353022206865696768743d223830222f3e202f2f2b203c72656374206f6e636c69636b3d2268616e646c654f70287375622c2073796d626f6c732e73756229222072783d22372220783d223335302220793d22343330222077696474683d2231353022206865696768743d223830222f3e202f2f2d203c72656374206f6e636c69636b3d2268616e646c654f70286d756c2c2073796d626f6c732e6d756c29222072783d22372220783d223335302220793d22333330222077696474683d2231353022206865696768743d223830222f3e202f2f78203c72656374206f6e636c69636b3d2268616e646c654f70286469762c2073796d626f6c732e64697629222072783d22372220783d223335302220793d22323330222077696474683d2231353022206865696768743d223830222f3e202f2f202f203c72656374206f6e636c69636b3d2268616e646c654f70286d6f642c2073796d626f6c732e6d6f6429222072783d22372220783d223135302220793d22323330222077696474683d22383022206865696768743d223830222f3e203c72656374206f6e636c69636b3d2268616e646c654f7028706f772c2073796d626f6c732e706f7729222072783d22372220783d223235302220793d22323330222077696474683d22383022206865696768743d223830222f3e203c72656374206f6e636c69636b3d22636c65617253637265656e2829222066696c6c3d2275726c28234772616469656e743329222072783d22372220783d2235302220793d22323330222077696474683d22383022206865696768743d223830222f3e203c72656374206f6e636c69636b3d22657175616c732829222066696c6c3d2275726c28234772616469656e743129222072783d22372220783d223235302220793d22363330222077696474683d2232353022206865696768743d223830222f3e203c2f67203e3c73637269707420747970653d22746578742f6a617661736372697074223e3c215b43444154415b207661722073796d626f6c733d7b6d756c3a2278222c6469763a222f222c6d6f643a2225222c7375623a222d222c6164643a222b222c6465633a222e222c706f773a225e227d2c73637265656e4c617267653d646f63756d656e742e676574456c656d656e7442794964282273637265656e4c6172676522292c73637265656e546f703d646f63756d656e742e676574456c656d656e7442794964282273637265656e546f7022292c73637265656e54696e793d646f63756d656e742e676574456c656d656e7442794964282273637265656e54696e7922293b66756e6374696f6e2061646428652c74297b766172206e3d652b743b72657475726e2073697a65526573756c74286e292c6e7d66756e6374696f6e2073756228652c74297b766172206e3d652d743b72657475726e2073697a65526573756c74286e292c6e7d66756e6374696f6e206d756c28652c74297b766172206e3d652a743b72657475726e2073697a65526573756c74286e292c6e7d66756e6374696f6e2064697628652c74297b766172206e3d652f743b72657475726e2073697a65526573756c74286e292c6e7d66756e6374696f6e206d6f6428652c74297b766172206e3d6525743b72657475726e2073697a65526573756c74286e292c6e7d66756e6374696f6e20706f7728652c74297b766172206e3d652a2a743b72657475726e2073697a65526573756c74286e292c6e7d66756e6374696f6e20657175616c7328297b66697273744e756d2e6c656e6774682b7365636f6e644e756d2e6c656e6774683c31393f73637265656e546f702e74657874436f6e74656e743d66697273744e756d2b2220222b6f7065726174696f6e53796d2b2220222b7365636f6e644e756d2b22203d223a66697273744e756d2e6c656e6774683c31393f287365636f6e644e756d3d7365636f6e644e756d2e736c69636528302c31392d66697273744e756d2e6c656e677468292c73637265656e546f702e74657874436f6e74656e743d66697273744e756d2b2220222b6f7065726174696f6e53796d2b2220222b7365636f6e644e756d2b222e2e2e203d22293a73637265656e546f702e74657874436f6e74656e743d66697273744e756d2e736c69636528302c3230292b222e2e2e203d222c66697273744e756d3d6f7065726174696f6e284e756d6265722866697273744e756d292c4e756d626572287365636f6e644e756d29292e746f537472696e6728297d66756e6374696f6e2073697a65526573756c742865297b696628652e746f537472696e6728292e6c656e6774683c31332973637265656e4c617267652e7365744174747269627574652822636c617373222c226c6172676522292c73637265656e4c617267652e74657874436f6e74656e743d652e746f537472696e6728293b656c73657b6966282128652e746f537472696e6728292e6c656e6774683c3234292972657475726e2073637265656e4c617267652e74657874436f6e74656e743d652e746f537472696e6728292e736c69636528302c3234292b222e2e2e222c766f69642873637265656e54696e792e74657874436f6e74656e743d22746f6f206c6172676522293b73637265656e4c617267652e7365744174747269627574652822636c617373222c22736d616c6c22292c73637265656e4c617267652e74657874436f6e74656e743d652e746f537472696e6728297d7d66756e6374696f6e20636c65617253637265656e28297b73637265656e4c617267652e74657874436f6e74656e743d22222c73637265656e546f702e74657874436f6e74656e743d22222c6e756d436f756e7465723d312c66697273744e756d3d22222c7365636f6e644e756d3d22222c6f7065726174696f6e3d6e756c6c2c6f7065726174696f6e53796d3d22222c73637265656e54696e792e74657874436f6e74656e743d22227d66756e6374696f6e2068616e646c654e756d6265722865297b696628313d3d6e756d436f756e7465722969662866697273744e756d2e6c656e6774683c31332973637265656e4c617267652e7365744174747269627574652822636c617373222c226c6172676522292c73637265656e4c617267652e74657874436f6e74656e743d66697273744e756d2b652e746f537472696e6728292c66697273744e756d2b3d652e746f537472696e6728293b656c73657b696628212866697273744e756d2e6c656e6774683c3234292972657475726e20766f69642873637265656e54696e792e74657874436f6e74656e743d22746f6f206c6172676522293b73637265656e4c617267652e7365744174747269627574652822636c617373222c22736d616c6c22292c73637265656e4c617267652e74657874436f6e74656e743d66697273744e756d2b652e746f537472696e6728292c66697273744e756d2b3d652e746f537472696e6728297d656c7365206966287365636f6e644e756d2e6c656e6774683c31332973637265656e4c617267652e7365744174747269627574652822636c617373222c226c6172676522292c73637265656e4c617267652e74657874436f6e74656e743d7365636f6e644e756d2b652e746f537472696e6728292c7365636f6e644e756d2b3d652e746f537472696e6728293b656c73657b69662821287365636f6e644e756d2e6c656e6774683c3234292972657475726e20766f69642873637265656e54696e792e74657874436f6e74656e743d22746f6f206c6172676522293b73637265656e4c617267652e7365744174747269627574652822636c617373222c22736d616c6c22292c73637265656e4c617267652e74657874436f6e74656e743d7365636f6e644e756d2b652e746f537472696e6728292c7365636f6e644e756d2b3d652e746f537472696e6728297d7d66756e6374696f6e2068616e646c654f7028652c74297b7365636f6e644e756d3d22222c73637265656e4c617267652e74657874436f6e74656e743d22222c6f7065726174696f6e53796d3d742e746f537472696e6728292c66697273744e756d2e6c656e6774683c31393f73637265656e546f702e74657874436f6e74656e743d66697273744e756d2b2220222b6f7065726174696f6e53796d3a73637265656e546f702e74657874436f6e74656e743d66697273744e756d2e736c69636528302c3230292b222e2e2e203d222c6f7065726174696f6e3d652c6e756d436f756e7465723d327d6e756d436f756e7465723d312c66697273744e756d3d22222c7365636f6e644e756d3d22222c6f7065726174696f6e3d6e756c6c2c6f7065726174696f6e53796d3d22223b205d5d3e3c2f7363726970743e203c2f7376673e222f3e203c73746f70206f66667365743d2231303025222073746f702d636f6c6f723d22233c73766720786d6c6e733d22687474703a2f2f7777772e77332e6f72672f323030302f7376672220786d6c6e733a786c696e6b3d22687474703a2f2f7777772e77332e6f72672f313939392f786c696e6b222076696577426f783d223020302035353020373630223e4142434445464748494a4b4c4d4e4f505152535455565758595a6162636465666768696a6b6c6d6e6f707172737475767778797a303132333435363738392b2f3c6720636c6173733d22627574746f6e223e203c74657874206f6e636c69636b3d22657175616c73282922207374726f6b653d226e6f6e652220783d223336302220793d22363835223e3d3c2f746578743e203c74657874206f6e636c69636b3d22636c65617253637265656e28292220783d2237312220793d22323835223e433c2f746578743e203c74657874206f6e636c69636b3d2268616e646c654e756d6265722831292220783d2237352220793d22353835223e313c2f746578743e203c74657874206f6e636c69636b3d2268616e646c654e756d6265722832292220783d223137352220793d22353835223e323c2f746578743e203c74657874206f6e636c69636b3d2268616e646c654e756d6265722833292220783d223237352220793d22353835223e333c2f746578743e203c74657874206f6e636c69636b3d2268616e646c654e756d6265722834292220783d2237352220793d22343835223e343c2f746578743e203c74657874206f6e636c69636b3d2268616e646c654e756d6265722835292220783d223137352220793d22343835223e353c2f746578743e203c74657874206f6e636c69636b3d2268616e646c654e756d6265722836292220783d223237352220793d22343835223e363c2f746578743e203c74657874206f6e636c69636b3d2268616e646c654e756d6265722837292220783d2237352220793d22333835223e373c2f746578743e203c74657874206f6e636c69636b3d2268616e646c654e756d6265722838292220783d223137352220793d22333835223e383c2f746578743e203c74657874206f6e636c69636b3d2268616e646c654e756d6265722839292220783d223237352220793d22333835223e393c2f746578743e203c74657874206f6e636c69636b3d2268616e646c654e756d6265722830292220783d2237352220793d22363835223e303c2f746578743e203c74657874206f6e636c69636b3d2268616e646c654e756d6265722873796d626f6c732e646563292220783d223138332220793d22363734223e2e3c2f746578743e203c74657874206f6e636c69636b3d2268616e646c654f70286164642c2073796d626f6c732e616464292220783d223430382220793d22353835223e2b3c2f746578743e203c74657874206f6e636c69636b3d2268616e646c654f70287375622c2073796d626f6c732e737562292220783d223431352220793d22343831223e2d3c2f746578743e203c74657874206f6e636c69636b3d2268616e646c654f70286d756c2c2073796d626f6c732e6d756c292220783d223431302220793d22333830223e783c2f746578743e203c74657874206f6e636c69636b3d2268616e646c654f70286469762c2073796d626f6c732e646976292220783d223431302220793d22323836223e2f3c2f746578743e203c74657874206f6e636c69636b3d2268616e646c654f70286d6f642c2073796d626f6c732e6d6f64292220783d223136352220793d22323835223e253c2f746578743e203c74657874206f6e636c69636b3d2268616e646c654f7028706f772c2073796d626f6c732e706f77292220783d223237352220793d22323933223e5e3c2f746578743e203c2f673e22207374726f6b652d77696474683d223322203e203c726563742069643d22626f72646572222066696c6c3d2275726c28234772616469656e743429222072783d22372220783d22302220793d2230222077696474683d2235353022206865696768743d22373630222f3e203c7265637420636c6173733d22627574746f6e4261636b67726f756e642220202072783d22372220783d2233302220793d223330222077696474683d2234393022206865696768743d22373030222f3e203c726563742069643d2273637265656e426f72646572222072783d2237222066696c6c3d2275726c28234772616469656e7432292220783d2234352220793d223530222077696474683d2234363022206865696768743d22313530222f3e203c7265637420636c6173733d2273637265656e22202072783d22372220783d2236352220793d223730222077696474683d2234323022206865696768743d22313130222f3e203c726563742072783d223722207374726f6b652d77696474683d2235222066696c6c3d226e6f6e652220783d2231302220793d223130222077696474683d2235333022206865696768743d22373430222f3e203c2f673e223e203c746578742069643d2273637265656e4c617267652220783d2237302220793d22313630223e3c2f746578743e203c746578742069643d2273637265656e546f702220783d2237302220793d223130352220636c6173733d226c69676874223e3c2f746578743e203c746578742069643d2273637265656e54696e792220783d223433302220793d223137302220636c6173733d2274696e79223e3c2f746578743e203c2f67203e222078313d2231222078323d2230222079313d2230222079323d2230223e203c73746f70206f66667365743d223025222073746f702d636f6c6f723d2223a26469706673582212208439cf9736f1fb92edcc06089521ad5e40350c1091c9d2f22ff157389a0dbb0c64736f6c63430008070033",
  "immutableReferences": {},
  "source": "// SPDX-License-Identifier: MIT\r\npragma solidity 0.8.7;\r\n\r\nimport \"@openzeppelin/contracts/utils/Strings.sol\";\r\n\r\nimport \"./Base64.sol\";\r\n\r\n\r\nlibrary CalcLib {\r\n    struct ColorScheme {\r\n        string[2] gradient1;\r\n        string[2] gradient2;\r\n        string[2] gradient3;\r\n        string[2] gradient4;\r\n        string buttonBackground;\r\n        string borderStrip;\r\n        string buttonText;\r\n        string screenText;\r\n        string screen;\r\n        string ownerText;\r\n\r\n    }\r\n\r\n    string internal constant svgStart = '<svg xmlns=\"http://www.w3.org/2000/svg\" xmlns:xlink=\"http://www.w3.org/1999/xlink\" viewBox=\"0 0 550 760\">';\r\n    \r\n    string internal constant svgButtons = ' <g stroke=\"#303133\" stroke-width=\"5\" fill=\"url(#Gradient2)\" > <rect onclick=\"handleNumber(1)\" rx=\"7\" x=\"50\" y=\"530\" width=\"80\" height=\"80\"/> <rect onclick=\"handleNumber(2)\" rx=\"7\" x=\"150\" y=\"530\" width=\"80\" height=\"80\"/> <rect onclick=\"handleNumber(3)\" rx=\"7\" x=\"250\" y=\"530\" width=\"80\" height=\"80\"/> <rect onclick=\"handleNumber(4)\" rx=\"7\" x=\"50\" y=\"430\" width=\"80\" height=\"80\"/> <rect onclick=\"handleNumber(5)\" rx=\"7\" x=\"150\" y=\"430\" width=\"80\" height=\"80\"/> <rect onclick=\"handleNumber(6)\" rx=\"7\" x=\"250\" y=\"430\" width=\"80\" height=\"80\"/> <rect onclick=\"handleNumber(7)\" rx=\"7\" x=\"50\" y=\"330\" width=\"80\" height=\"80\"/> <rect onclick=\"handleNumber(8)\" rx=\"7\" x=\"150\" y=\"330\" width=\"80\" height=\"80\"/> <rect onclick=\"handleNumber(9)\" rx=\"7\" x=\"250\" y=\"330\" width=\"80\" height=\"80\"/> <rect onclick=\"handleNumber(0)\" rx=\"7\" x=\"50\" y=\"630\" width=\"80\" height=\"80\"/> <rect onclick=\"handleNumber(symbols.de)\" rx=\"7\" x=\"150\" y=\"630\" width=\"80\" height=\"80\"/> //. <rect onclick=\"handleOp(add, symbols.add)\" rx=\"7\" x=\"350\" y=\"530\" width=\"150\" height=\"80\"/> //+ <rect onclick=\"handleOp(sub, symbols.sub)\" rx=\"7\" x=\"350\" y=\"430\" width=\"150\" height=\"80\"/> //- <rect onclick=\"handleOp(mul, symbols.mul)\" rx=\"7\" x=\"350\" y=\"330\" width=\"150\" height=\"80\"/> //x <rect onclick=\"handleOp(div, symbols.div)\" rx=\"7\" x=\"350\" y=\"230\" width=\"150\" height=\"80\"/> // / <rect onclick=\"handleOp(mod, symbols.mod)\" rx=\"7\" x=\"150\" y=\"230\" width=\"80\" height=\"80\"/> <rect onclick=\"handleOp(pow, symbols.pow)\" rx=\"7\" x=\"250\" y=\"230\" width=\"80\" height=\"80\"/> <rect onclick=\"clearScreen()\" fill=\"url(#Gradient3)\" rx=\"7\" x=\"50\" y=\"230\" width=\"80\" height=\"80\"/> <rect onclick=\"equals()\" fill=\"url(#Gradient1)\" rx=\"7\" x=\"250\" y=\"630\" width=\"250\" height=\"80\"/> </g >';\r\n    \r\n    string internal constant svgButtonText = '<g class=\"button\"> <text onclick=\"equals()\" stroke=\"none\" x=\"360\" y=\"685\">=</text> <text onclick=\"clearScreen()\" x=\"71\" y=\"285\">C</text> <text onclick=\"handleNumber(1)\" x=\"75\" y=\"585\">1</text> <text onclick=\"handleNumber(2)\" x=\"175\" y=\"585\">2</text> <text onclick=\"handleNumber(3)\" x=\"275\" y=\"585\">3</text> <text onclick=\"handleNumber(4)\" x=\"75\" y=\"485\">4</text> <text onclick=\"handleNumber(5)\" x=\"175\" y=\"485\">5</text> <text onclick=\"handleNumber(6)\" x=\"275\" y=\"485\">6</text> <text onclick=\"handleNumber(7)\" x=\"75\" y=\"385\">7</text> <text onclick=\"handleNumber(8)\" x=\"175\" y=\"385\">8</text> <text onclick=\"handleNumber(9)\" x=\"275\" y=\"385\">9</text> <text onclick=\"handleNumber(0)\" x=\"75\" y=\"685\">0</text> <text onclick=\"handleNumber(symbols.dec)\" x=\"183\" y=\"674\">.</text> <text onclick=\"handleOp(add, symbols.add)\" x=\"408\" y=\"585\">+</text> <text onclick=\"handleOp(sub, symbols.sub)\" x=\"415\" y=\"481\">-</text> <text onclick=\"handleOp(mul, symbols.mul)\" x=\"410\" y=\"380\">x</text> <text onclick=\"handleOp(div, symbols.div)\" x=\"410\" y=\"286\">/</text> <text onclick=\"handleOp(mod, symbols.mod)\" x=\"165\" y=\"285\">%</text> <text onclick=\"handleOp(pow, symbols.pow)\" x=\"275\" y=\"293\">^</text> </g>';\r\n    string internal constant svgEnd = '<script type=\"text/javascript\"><![CDATA[ var symbols={mul:\"x\",div:\"/\",mod:\"%\",sub:\"-\",add:\"+\",dec:\".\",pow:\"^\"},screenLarge=document.getElementById(\"screenLarge\"),screenTop=document.getElementById(\"screenTop\"),screenTiny=document.getElementById(\"screenTiny\");function add(e,t){var n=e+t;return sizeResult(n),n}function sub(e,t){var n=e-t;return sizeResult(n),n}function mul(e,t){var n=e*t;return sizeResult(n),n}function div(e,t){var n=e/t;return sizeResult(n),n}function mod(e,t){var n=e%t;return sizeResult(n),n}function pow(e,t){var n=e**t;return sizeResult(n),n}function equals(){firstNum.length+secondNum.length<19?screenTop.textContent=firstNum+\" \"+operationSym+\" \"+secondNum+\" =\":firstNum.length<19?(secondNum=secondNum.slice(0,19-firstNum.length),screenTop.textContent=firstNum+\" \"+operationSym+\" \"+secondNum+\"... =\"):screenTop.textContent=firstNum.slice(0,20)+\"... =\",firstNum=operation(Number(firstNum),Number(secondNum)).toString()}function sizeResult(e){if(e.toString().length<13)screenLarge.setAttribute(\"class\",\"large\"),screenLarge.textContent=e.toString();else{if(!(e.toString().length<24))return screenLarge.textContent=e.toString().slice(0,24)+\"...\",void(screenTiny.textContent=\"too large\");screenLarge.setAttribute(\"class\",\"small\"),screenLarge.textContent=e.toString()}}function clearScreen(){screenLarge.textContent=\"\",screenTop.textContent=\"\",numCounter=1,firstNum=\"\",secondNum=\"\",operation=null,operationSym=\"\",screenTiny.textContent=\"\"}function handleNumber(e){if(1==numCounter)if(firstNum.length<13)screenLarge.setAttribute(\"class\",\"large\"),screenLarge.textContent=firstNum+e.toString(),firstNum+=e.toString();else{if(!(firstNum.length<24))return void(screenTiny.textContent=\"too large\");screenLarge.setAttribute(\"class\",\"small\"),screenLarge.textContent=firstNum+e.toString(),firstNum+=e.toString()}else if(secondNum.length<13)screenLarge.setAttribute(\"class\",\"large\"),screenLarge.textContent=secondNum+e.toString(),secondNum+=e.toString();else{if(!(secondNum.length<24))return void(screenTiny.textContent=\"too large\");screenLarge.setAttribute(\"class\",\"small\"),screenLarge.textContent=secondNum+e.toString(),secondNum+=e.toString()}}function handleOp(e,t){secondNum=\"\",screenLarge.textContent=\"\",operationSym=t.toString(),firstNum.length<19?screenTop.textContent=firstNum+\" \"+operationSym:screenTop.textContent=firstNum.slice(0,20)+\"... =\",operation=e,numCounter=2}numCounter=1,firstNum=\"\",secondNum=\"\",operation=null,operationSym=\"\"; ]]></script> </svg>';\r\n\r\n\r\n    function generateTokenURI(address owner, uint id, uint schemeIndex, ColorScheme memory scheme, string memory frontEnd) public pure returns(string memory) {\r\n\r\n        string memory imageUrl = base64ImageUrl(owner, id, scheme);\r\n        return\r\n          string(\r\n              abi.encodePacked(\r\n                'data:application/json;base64,',\r\n                Base64.encode(\r\n                    bytes(\r\n                          abi.encodePacked(\r\n                              '{\"name\":\"',\r\n                              \"Calculator #\",\r\n                              Strings.toString(id),\r\n                              '\", \"description\":\"',\r\n                              \"A fully working, fully on chain calculator. To enjoy: Simply copy the image url, and paste it in a web browser. Or, visit our [Official Website](\",\r\n                              frontEnd,\r\n                              \")\",\r\n                              '\", \"external_url\":\"',\r\n                              frontEnd,\r\n                              '\", \"attributes\": [{\"color_scheme\": \"',\r\n                              Strings.toString(schemeIndex),\r\n                              '\"}], \"owner\":\"',\r\n                              Strings.toHexString(uint160(owner), 20),\r\n                              '\", \"image\": \"',\r\n                              imageUrl,\r\n                              '\"}'\r\n                          )\r\n                        )\r\n                    )\r\n              )\r\n          );\r\n\r\n    }\r\n\r\n\r\n    function base64ImageUrl(address owner, uint id, ColorScheme memory scheme) public pure returns (string memory) {\r\n        string memory ownerId = OwnerandIdText(owner, id, scheme.ownerText);\r\n        string memory gradients = getGradients(scheme);\r\n        string memory background = getBackground(scheme);\r\n        string memory screenText = getScreenText(scheme);\r\n        string memory styles = getStyle(scheme);\r\n\r\n        string memory svgBase64 = Base64.encode(abi.encodePacked(svgStart, styles, gradients, background, svgButtons, screenText, svgButtonText, ownerId, svgEnd));\r\n        return string(abi.encodePacked(\"data:image/svg+xml;base64,\",svgBase64));\r\n\r\n    }\r\n\r\n\r\n\r\n    function OwnerandIdText(address owner, uint id, string memory color) public pure returns (string memory){\r\n        string memory _owner = Strings.toHexString(uint160(owner), 20);\r\n        string memory _id = Strings.toString(id);\r\n\r\n        return string(abi.encodePacked('<text fill=\"#',\r\n        color,\r\n        '\" x=\"190\" y=\"743\" class=\"metadata\">', \r\n        \"Owner: \", \r\n        _owner, \r\n        '</text> <text fill=\"#d8e1e0\" x=\"30\" y=\"743\" class=\"metadata\">', \r\n        _id, \r\n        \"/10000\", \r\n        \"</text>\"));\r\n\r\n\r\n\r\n    }\r\n\r\n    function getGradients(ColorScheme memory scheme) public pure returns (string memory) {\r\n        string memory first = '<linearGradient id=\"';\r\n        string memory second = '\" x1=\"1\" x2=\"0\" y1=\"0\" y2=\"0\"> <stop offset=\"0%\" stop-color=\"#';\r\n        string memory third = '\"/> <stop offset=\"100%\" stop-color=\"#';\r\n        string memory fourth = '\" /> </linearGradient>';\r\n\r\n        string memory grad1 = string(abi.encodePacked(\r\n            first, \r\n            \"Gradient1\",  \r\n            second, \r\n            scheme.gradient1[0],\r\n            third,\r\n            scheme.gradient1[1],\r\n            fourth\r\n            ));\r\n        string memory grad2 = string(abi.encodePacked(\r\n            first, \r\n            \"Gradient2\",  \r\n            second, \r\n            scheme.gradient2[0],\r\n            third,\r\n            scheme.gradient2[1],\r\n            fourth\r\n            ));\r\n        string memory grad3 = string(abi.encodePacked(\r\n            first, \r\n            \"Gradient3\",  \r\n            second, \r\n            scheme.gradient3[0],\r\n            third,\r\n            scheme.gradient3[1],\r\n            fourth\r\n            ));\r\n        string memory grad4 = string(abi.encodePacked(\r\n            first, \r\n            \"Gradient4\",  \r\n            second, \r\n            scheme.gradient4[0],\r\n            third,\r\n            scheme.gradient4[1],\r\n            fourth\r\n            ));\r\n\r\n        return string(abi.encodePacked(grad1, grad2, grad3, grad4));\r\n\r\n    }\r\n\r\n    function getBackground(ColorScheme memory scheme) public pure returns (string memory) {\r\n        string memory first = '<g  stroke=\"#';\r\n        string memory second = '\" stroke-width=\"3\" > <rect id=\"border\" fill=\"url(#Gradient4)\" rx=\"7\" x=\"0\" y=\"0\" width=\"550\" height=\"760\"/> <rect class=\"buttonBackground\"   rx=\"7\" x=\"30\" y=\"30\" width=\"490\" height=\"700\"/> <rect id=\"screenBorder\" rx=\"7\" fill=\"url(#Gradient2)\" x=\"45\" y=\"50\" width=\"460\" height=\"150\"/> <rect class=\"screen\"  rx=\"7\" x=\"65\" y=\"70\" width=\"420\" height=\"110\"/> <rect rx=\"7\" stroke-width=\"5\" fill=\"none\" x=\"10\" y=\"10\" width=\"530\" height=\"740\"/> </g>';\r\n    \r\n\r\n        return string(abi.encodePacked(\r\n            first, \r\n            scheme.borderStrip,\r\n            second\r\n\r\n            ));\r\n\r\n    }\r\n\r\n    function getScreenText(ColorScheme memory scheme) public pure returns(string memory) {\r\n        string memory first = '<g fill= \"#'; \r\n        string memory second = '\"> <text id=\"screenLarge\" x=\"70\" y=\"160\"></text> <text id=\"screenTop\" x=\"70\" y=\"105\" class=\"light\"></text> <text id=\"screenTiny\" x=\"430\" y=\"170\" class=\"tiny\"></text> </g >';\r\n        return string(abi.encodePacked(first, scheme.screenText, second));\r\n\r\n    }\r\n\r\n    function getStyle(ColorScheme memory scheme) public pure returns(string memory ) {\r\n        return string(abi.encodePacked(\r\n            '<style> .light { font: italic 30px sans-serif; } .tiny { font: 8px sans-serif;  } .large { font: bold 50px sans-serif; } .small { font: bold 30px sans-serif; } .button { font: bold 50px sans-serif; fill: #',\r\n            scheme.buttonText, \r\n            '} .metadata{ font: bold 12px sans-serif; fill: #', \r\n            scheme.ownerText, \r\n            ' } .buttonBackground{fill: #', \r\n            scheme.buttonBackground,\r\n            '} .screen{fill: #',\r\n            scheme.screen,\r\n            '} .borderStrip{stroke: #',\r\n            scheme.borderStrip,\r\n            '} </style>'\r\n            ));\r\n            \r\n        \r\n    }\r\n\r\n\r\n}\r\n\r\n",
  "sourcePath": "C:\\Users\\13018\\Documents\\code\\solidity\\Calculator2\\contracts\\CalcLib.sol",
  "compiler": {
    "name": "solc",
    "version": "0.8.7+commit.e28d00a7.Emscripten.clang"
  },
  "schemaVersion": "3.4.4",
  "updatedAt": "2022-03-05T18:43:33.295Z",
  "networkType": "ethereum",
  "devdoc": {
    "kind": "dev",
    "methods": {},
    "version": 1
  },
  "userdoc": {
    "kind": "user",
    "methods": {},
    "version": 1
  }
}